:020000040800F2
:100000004044002061020008EF160008FB150008BC
:10001000ED160008510800082B1B00080000000026
:10002000000000000000000000000000A101000826
:100030005308000800000000FD01000861170008D7
:100040007B0200087B0200087B0200087B0200089C
:100050007B0200087B0200087B0200087B0200088C
:100060007B0200087B0200087B0200087B0200087C
:100070007B0200087B0200087B0200087B0200086C
:100080007B0200087B0200087B0200087B0200085C
:100090007B0200087B0200087B0200087B0200084C
:1000A0007B0200087B0200087B0200087B0200083C
:1000B0007B020008411800087B0200087B02000850
:1000C0007B0200087B0200087B0200087B0200081C
:1000D0007B0200087B0200087B0200087B0200080C
:1000E0007B0200087B0200087B0200087B020008FC
:1000F0007B0200087B0200087B0200087B020008EC
:100100007B0200087B0200084D1800087B020008F3
:100110007B0200087B0200087B0200087B020008CB
:100120007B0200087B0200087B0200087B020008BB
:100130007B0200087B0200087B0200087B020008AB
:100140007B0200087B0200087B0200087B0200089B
:100150007B0200087B0200087B0200087B0200088B
:100160007B0200087B0200087B0200087B0200087B
:100170007B0200087B0200087B02000800000000F0
:100180007B0200087B020008DFF810D000F0A2FA22
:1001900000480047B5240008AFF300804044002029
:1001A0002C4B19680868B0E8F04F80F30988BFF35A
:1001B0006F8F4FF0000080F311887047000000003F
:1001C00008480068006880F308884FF0000080F35A
:1001D000148862B661B6BFF34F8FBFF36F8F00DF35
:1001E00000BF00BF08ED00E0DFF80C00016841F43B
:1001F00070010160704700BF88ED00E0EFF30980F7
:10020000BFF36F8F134B1A681EF0100F08BF20ED5D
:10021000108A20E9F04F106009B44FF0500080F3CD
:100220001188BFF34F8FBFF36F8F02F0E5FC4FF0E3
:10023000000080F3118809BC19680868B0E8F04F25
:100240001EF0100F08BFB0EC108A80F30988BFF3CE
:100250006F8F704718000020EFF305807047000093
:100260000648804706480047FEE7FEE7FEE7FEE750
:10027000FEE7FEE7FEE7FEE7FEE7FEE725180008DB
:10028000890100082DE9F05F0546002092469B4653
:1002900088460646814640241BE02846414647469C
:1002A000224600F098F953465A46C01A914110D39D
:1002B00011461846224600F07FF92D1A67EB010817
:1002C0004F4622460120002100F076F917EB000985
:1002D0004E41201EA4F10104DFDC484631462A4687
:1002E0004346BDE8F09F40EA01039B0703D009E0C5
:1002F00008C9121F08C0042AFAD203E011F8013B12
:1003000000F8013B521EF9D27047D2B201E000F86A
:10031000012B491EFBD270470022F6E710B51346A9
:100320000A4604461946FFF7F0FF204610BD2DE9A6
:10033000FE4F804681EA0300C00F0C46009021F07A
:10034000004123F00045B8EB0200A94105D2404628
:10035000214690461C460B46024623F000401043BF
:1003600047D0270DC7F30A00C3F30A510290401A81
:10037000019040286BDAC3F3130040F4801B00980F
:10038000924620B10023D2EB030A63EB0B0B0198DA
:100390005946C0F14002504600F00EF906460D469F
:1003A00050465946019A00F026F910EB08006141C9
:1003B000002487EA115284EAE7731A4340D0009A76
:1003C00062B3019A012A4FEA075215DC001B61EB68
:1003D00002014FF0004202EA0752CDE90042001C40
:1003E00041F5801132462B4600F026F903B0BDE8F6
:1003F000F08F40462146F9E7001B61EB0201001C2B
:1004000041F5801300185B412018A2F5001747EB57
:10041000030140EAD570B6196D4111E06D084FEA4D
:10042000360645EAC0754FEA0752001B61EB020130
:10043000001C41F5801149084FEA30000019514174
:1004400032462B4603B0BDE8F04F00F0E6B8009806
:10045000012240000023D0EB020263EBE07300981E
:1004600021464FEAE074B8EB000061EB0401E9E7D4
:1004700083F000435BE781F0004158E72DE9FE4F30
:1004800081EA030404F0004421F0004100944FF09D
:10049000000B23F0004350EA01045ED052EA03044B
:1004A0005BD0C3F30A54C1F30A552C44A4F2F334CD
:1004B0000194A0FB0254C1F3130141F48011C3F372
:1004C000130343F4801301FB024400FB034E840A30
:1004D000970A44EA815447EA8357A4FB07680295C8
:1004E0008D0A05FB07854FEA932C04FB0C54270566
:1004F000029D4FEA065847EA1637B5EB08056EEB42
:10050000070C870E920E47EA811742EA8312A7FB77
:100510000201B6EB0B0164EB00042B0D43EA0C3334
:100520005E1844EB1C50DA465146E7FB0201C5F366
:1005300013044FEA0B3343EA14534FEA0432019C8D
:1005400043EA0603A4F10C040294009CCDE900B434
:1005500000F072F803B0BDE8F08F00200146F9E723
:10056000C1F30A5210B5C1F3130140F2FF3341F455
:1005700080119A4201DA002010BD40F233439A42C2
:10058000A2F2334203DC524200F025F810BD904045
:1005900010BD00F0004230F000400AD0C10D01F55E
:1005A0006071C0F3160042EA0151C20840071143CE
:1005B0007047002001467047202A04DB203A00FAE9
:1005C00002F1002070479140C2F1200320FA03F3AA
:1005D000194390407047202A04DB203A21FA02F0A8
:1005E0000021704721FA02F3D040C2F1200291406D
:1005F000084319467047202A06DBCB17203A41FAF8
:1006000002F043EAE07306E041FA02F3D040C2F19F
:100610002002914008431946704710B5141E73F12B
:10062000000408DA401C41F1000192185B411A43B2
:1006300001D120F0010010BD2DE9F04D92469B46FE
:1006400011B1B1FA81F202E0B0FA80F220329046A4
:10065000FFF7B2FF04460F4640EA0A0041EA0B01E9
:1006600053465A46084313D0114653EA010019D0A5
:10067000C8F140025046FFF7AEFF05460E46504611
:1006800059464246FFF798FF084305D0012004E091
:1006900020463946BDE8F08D0020054346EAE07665
:1006A0002C4337430A986305E40AA0EB08000022B4
:1006B000FD0A44EA47540A3002D500200146E9E722
:1006C000010510196941DDE9084500196941BDE8D6
:1006D000F04DA2E7064C074D06E0E06840F001034C
:1006E00094E8070098471034AC42F6D3FFF750FD6A
:1006F000E8300008083100082DE9F04D81EA0304D4
:1007000004F0004B21F0004514464FF0000A23F09E
:10071000004150EA050220D054EA01021DD0C5F381
:100720000A570246C5F31303C1F31300C1F30A5677
:1007300040F4801543F48013A7EB0608101BD6463F
:1007400008F2FD3873EB050002D308F1010801E05F
:1007500092185B41B8F1000F03DA00200146BDE8B2
:10076000F08D00204FF48011064684460EE0171BE2
:1007700073EB050705D3121B63EB050306434CEA35
:10078000010C49084FEA300092185B4150EA01071A
:10079000EDD152EA030012D082EA040083EA050197
:1007A000084305D0101BAB4106D20122002306E00E
:1007B00000224FF0004302E06FF0010253101AEBE9
:1007C00006004CEB085110EB0A0041EB0B01BDE8B1
:1007D000F04DFFF722BF0EB5C10F80EAE07008446C
:1007E000CA07002140F233438DE80E000A460B464B
:1007F000FFF722FF03B000BD0EB540F23341029176
:100800000021CDE900110A460B46FFF715FF03B0A2
:1008100000BD70B5C1F30A5201F000450024C1F3D8
:10082000130140F2FF3341F480119A4201DA0020B3
:1008300070BD40F233439A42A2F2334203DC52428B
:10084000FFF7C9FE00E090402C43F1D0404270BD5C
:10085000FEE7704772B6FEE72DE9F84F00224FF031
:10086000010803254FF00F0E0B6808FA02F423402D
:10087000A3426ED14E68012E05D0022E03D0112E58
:1008800001D0122E12D186684FEA420C05FA0CF7FD
:10089000BE43CF6807FA0CF7374387604668A64324
:1008A0000C79C4F30014944034434460C668570084
:1008B00005FA07FC8C6826EA0C06BC403443C46089
:1008C0004C68022C01D0122C13D1D40800EB840404
:1008D000A346D4F8209054074FEAD46A0EFA0AF6D9
:1008E00029EA06090E6906FA0AF646EA0906CBF86D
:1008F000206006680C7926EA0C0604F00304BC406C
:10090000344304604C68E40065D5364C266846F4F0
:1009100080462660246822F0030604F48044009494
:10092000314C3444A446D4F808489607370F0EFAE1
:1009300007F6B4432D4EB04201D1002624E02C4EE0
:10094000B04201D101261FE02A4EB04202D1022658
:100950001AE040E0284EB04201D1032614E0274EB1
:10096000B04201D104260FE0254EB04201D1052648
:100970000AE0244EB04201D1062605E0224EB042E4
:1009800001D1072600E00826BE402643CCF80868BF
:100990001E4E34684F689C43FF0300D51C433460EF
:1009A0001A4C241D26684F689E43BF0300D51E4382
:1009B0002660164E083634684F689C43FF0200D507
:1009C0001C433460114E0C3634684F689C43BF02A0
:1009D00000D51C433460521C102AFFF445AFBDE81B
:1009E000F88F00004438024000300140000002400F
:1009F0000004024000080240000C024000100240C7
:100A00000014024000180240001C0240003C01405B
:100A10000148806870470000080000200248816893
:100A20000278114481607047080000200B4810B51F
:100A3000016841F400710160016841F48061016066
:100A4000016841F480710160032000F08DF80020FE
:100A500000F006F800F03EF8002010BD003C024017
:100A600010B5014688B00022322000F05DF8322037
:100A700000F04CF813480024016841F008010160BF
:100A8000006805A900F008000690684600F018F913
:100A900000F036F90C494000B0FBF1F10C480B4A6C
:100AA000491E026040F2E732C0E90324C0E90114A4
:100AB00000F05EFB10B1012008B010BD044800F04A
:100AC00091FBF9E74038024040420F00000C004023
:100AD000100300200C4882B0016841F4804101609D
:100AE000006800F4804000900748001F016841F052
:100AF000805101600068002200F0805000900F21BA
:100B0000901E02B000F010B844380240002809DB03
:100B100000F01F02012191404009800000F1E02017
:100B2000C0F8001170470000F0B40E4B1B680C4673
:100B3000C3F30223C3F10705042D00D90425191DB1
:100B4000072901D2002300E0DB1E012606FA05F189
:100B5000491E214099409E40761E16403143F0BC0C
:100B600000F0FCBF0CED00E0064900F00702086849
:100B70004FF6FF03184040EA0220034A1043086082
:100B8000704700000CED00E00000FA052DE9F04789
:100B90000E46050065D0DFF81481D8F80000F7B2E2
:100BA00000F00F00B04207D288F80070D8F80000BB
:100BB00000F00F00B04254D128683D4C810712D597
:100BC000400703D5206840F4E050206028780007F3
:100BD00003D5206840F4604020602068A96820F0B8
:100BE000F000084320602878C0072DD0304968689D
:100BF0000839012812D0022813D0032811D009681F
:100C0000890700292DDA216821F0030101432160C1
:100C1000FFF7FEFE814641F2883A0EE0096889033B
:100C2000EFE709688901ECE7FFF7F2FEA0EB0901A5
:100C3000514502D90320BDE8F0872068696800F0BB
:100C40000C00B0EB810FEFD1D8F80010404601F056
:100C50000F01B14207D90770006800F00F00B042E1
:100C600001D00120E7E72878400705D52068E9682A
:100C700020F4E050084320602878000706D520685B
:100C8000296920F4604040EAC100206000F048F883
:100C90002168084AC1F30311515CC8400649086045
:100CA00006480068FFF7DCFE0020C4E7003C024075
:100CB00008380240A02F0008140000200C0000207B
:100CC0000F2202600C4A136803F0030343601368A9
:100CD00003F0F0038360136803F4E053C360126809
:100CE0004FF4E05303EAD20202610448006800F0C6
:100CF0000F0008607047000008380240003C0240C6
:100D00000448054900680968044AC1F38221515C1E
:100D1000C84070471400002008380240B02F000877
:100D2000154810B5006810F00C02144813D041109B
:100D3000042A0FD0082A0ED10F4C241F22682368E2
:100D400002F03F025B0207D52068C0F38810A0FBC9
:100D5000010106E0084610BD2168C1F38811A1FB1E
:100D600000010023FFF78EFA2168C1F30141491CFD
:100D70004900B0FBF1F010BD083802400024F40037
:100D80002DE9F84F04006ED02078DFF83C93C007BF
:100D9000A9F104054AD009F104000168C1F38101F9
:100DA000012908D00068C0F3810002280AD1D9F8CF
:100DB0000000400206D52868800337D56068002807
:100DC000E1D033E06068B0F5803F10D0B0F5A02FDF
:100DD000286810D020F480302860286820F4802013
:100DE00028606068A8B1FFF713FE06460DE028688A
:100DF00040F48030F4E740F480202860F7E700BF3B
:100E0000FFF706FE801B642873D828688003F7D597
:100E10000CE0FFF7FDFD064605E000BFFFF7F8FD1B
:100E2000801B6428F0D828688003F7D42078DFF886
:100E30009C8280074FF0000A3ED5A348001D016840
:100E400011F00C0F08D00068C0F3810002280BD10C
:100E5000D9F80000400207D42868800716D5E0685A
:100E6000012800D112E02BE1E068B8B10120C8F8F8
:100E70000000FFF7CDFD064605E000BFFFF7C8FD07
:100E8000801B0228C0D828688007F7D52868216908
:100E900020F0F80040EAC10028600DE0C8F800A08A
:100EA000FFF7B6FD064604E0FFF7B2FD801B0228FF
:100EB0001FD828688007F7D42078000722D5824EF3
:100EC00083486169703671B101210160FFF7A0FDAF
:100ED000074604E0FFF79CFDC01B022809D83068D4
:100EE0008007F7D50EE0C0F800A0FFF791FD074698
:100EF00005E082E0FFF78CFDC01B02287DD830683A
:100F00008007F7D42078400768D5DFF8BCB1002708
:100F10000BF13C0BDBF80000C0000BD4DBF8001039
:100F200041F08051CBF80010DBF80000012700F001
:100F300080500090674E3068C00510D4306840F48F
:100F400080703060FFF764FD009005E0FFF760FD02
:100F50000099401A022850D83068C005F6D55A4E7C
:100F6000A0686C3601280FD00528306810D020F01A
:100F700001003060306820F004003060A068B8B133
:100F8000FFF746FD00900FE0306840F00100F4E705
:100F900040F004003060F7E7FFF73AFD0099411A8E
:100FA00041F28830814266D830688007F4D50EE07F
:100FB000FFF72EFD009007E0FFF72AFD0099411A88
:100FC00041F28830814256D830688007F4D42FB17E
:100FD000DBF8001021F08051CBF80010A069C8B3F5
:100FE0003949091D0968C1F3810102294AD0022843
:100FF000504607D0C8F8600000E03CE0FFF708FD6D
:1010000004463BE04746C8F86000FFF701FD06468E
:1010100005E000BFFFF7FCFC801B02282BD82868E6
:101020008001F7D4D4E907010843A16A2A4A490894
:1010300002EB0141626A41EA8211084394F82C10E4
:1010400040EA0161C9F8001001203866FFF7E0FCB2
:10105000044606E036E000BFFFF7DAFC001B02287A
:1010600009D828688001F7D52CE000BFFFF7D0FC35
:10107000001B022802D90320BDE8F88F28688001F0
:10108000F4D41FE00128F7D0D9F80000E26900F499
:101090008001914214D1226A00F03F0191420FD1A8
:1010A00047F6C071626A0140914209D1A26A00F418
:1010B0004031914204D1E16A00F07060884201D071
:1010C0000120D9E70020D7E704380240000047425A
:1010D000800E4742007000400000FFFF70477047DD
:1010E00070B590F83C20012A32D0012480F83C40B1
:1010F000022280F83D2003685A689D6822F070063D
:101100000A6832435A60134B02689A4214D0B2F113
:10111000804F11D0104B9A420ED0104B9A420BD0F8
:101120000F4B9A4208D00F4B9A4205D00E4B9A4271
:1011300002D00E4B9A4204D1496825F0800319432E
:10114000916080F83D40002180F83C10084670BD59
:10115000022070BD00000140000400400008004073
:10116000000C004000040140004001400018004015
:1011700010B5040003D094F83D0010B107E0012041
:1011800010BD002084F83C00204600F00DF802203D
:1011900084F83D00211D206800F05EFB012084F8EA
:1011A0003D00002010BD000008B500680B498842D2
:1011B00012D10B48016841F0020101600068002271
:1011C00000F00200009005211D20FFF7ADFCBDE8F6
:1011D00008401D20FFF79ABC08BD00000004004035
:1011E000403802400168CA6842F00102CA600068E3
:1011F000816801F00701062903D0016841F001016F
:1012000001600020704770B5044690F83C0001284A
:1012100017D0012584F83C50022084F83D00206856
:10122000826822F0770222F47F42826008685028A8
:1012300030D00DDC20284DD005DC98B310283BD1F0
:1012400048E0022070BD302844D0402834D139E035
:10125000602828D0702806D0B0F5805F2CD0B0F57B
:10126000005F29D10AE0CB68D1E90121206800F0B4
:1012700064FB2068816841F0770109E0CB68D1E91F
:101280000121206800F059FB2068816841F4804109
:10129000816011E0CA684968206800F023FC502191
:1012A000206807E016E0CA684968206800F02BFC57
:1012B0006021206800F04BFB84F83D50002084F84A
:1012C0003C0070BDCA684968206800F00BFC4021F2
:1012D0002068EFE7226801461046EBE7704770B5DB
:1012E0000446006801694FF00005C943890715D419
:1012F000C168C943890711D4E91E01610120207723
:10130000206880698007204602D0FFF7E7FF04E0ED
:1013100000F0C0F8204600F042F925772068016906
:10132000C943490717D4C168C943490713D46FF0AB
:1013300004010161022020772068806910F4407F59
:10134000204602D0FFF7CAFF04E000F0A3F82046D1
:1013500000F025F9257720680169C943090716D4EB
:10136000C168C943090712D46FF008010161042064
:1013700020772068C0698007204602D0FFF7AEFFC3
:1013800004E000F087F8204600F009F9257720688E
:101390000169C943C90617D4C168C943C90613D432
:1013A0006FF010010161082020772068C06910F4F7
:1013B000407F204602D0FFF791FF04E000F06AF87A
:1013C000204600F0ECF8257720680169C943C90779
:1013D00008D1C168C943C90704D1891E01612046EB
:1013E00000F000F920680169C943090609D4C16801
:1013F000C943090605D46FF0800101612046FFF75B
:101400006DFE20680169C943490609D4C168C94312
:10141000490605D46FF040010161204600F0ECF868
:1014200020680169C94389060BD4C168C94389068C
:1014300007D46FF0200101612046BDE87040FFF73E
:101440004EBE70BD10B586B0044614216846FEF746
:1014500063FF0D492068884214D10C4800210268BE
:1014600042F001020260006800F001000590402097
:1014700000900220CDE90101CDE90310694604483E
:10148000FFF7EAF906B010BD000400403038024012
:1014900000000240704770B5044690F83C000D46CD
:1014A00001280DD0012684F83C60022084F83D001C
:1014B00042B1042A18D0082A2AD00C2A4DD139E08A
:1014C000022070BD206800F04BFA2068816941F06D
:1014D000080181612068816921F00401816120682F
:1014E00081692A69114311E0206800F069FA2068D7
:1014F000816941F4006181612068816921F4806122
:101500008161206881692A6941EA0221816124E0C0
:10151000206800F08BFA2068C16941F00801C161C0
:101520002068C16921F00401C1612068C1692A698C
:10153000114311E0206800F0ADFA2068C16941F460
:101540000061C1612068C16921F48061C1612068C6
:10155000C1692A6941EA0221C16184F83D60002025
:1015600084F83C0070BD10B5040003D094F83D0031
:1015700010B107E0012010BD002084F83C00204697
:1015800000F00CF8022084F83D00211D206800F0D6
:1015900063F9012084F83D00002010BD70477047BA
:1015A00010B504460068012200F0BAF90B49206822
:1015B000884202D00A49884203D1416C41F400417B
:1015C00041642068816801F00701062903D00168A1
:1015D00041F001010160002010BD00000000014049
:1015E0000004014000680349884201D1FFF716BAA0
:1015F00070470000000C00407047FEE700B587B060
:101600001C2206496846FEF76EFE0021684600F07F
:1016100079FF0349486007B000BD0000842F00082F
:1016200000000020094808B5016841F08001016010
:10163000016801F080010091016841F00101016041
:10164000006800F00100009008BD00003038024042
:1016500010B58EB000240794089409940A940B9452
:101660001C2168460C94FEF757FE1F481D49016077
:101670005321C0E9011440F2E731C0E9031480218D
:101680008161FFF775FD08B1FFF7E4F84FF4805072
:10169000079007A91448FFF7B6FD08B1FFF7DAF87D
:1016A0001148FFF760FF08B1FFF7D4F80B940BA9BE
:1016B0000D480C94FFF714FD08B1FFF7CBF860203C
:1016C000CDE9000402940022694607480494FFF71C
:1016D000E2FE08B1FFF7BEF80348FFF7B3FE0EB015
:1016E00010BD000000040040D0020020FEE7FEE72D
:1016F0002DED048B154C9FED169A9FED168B174D13
:101700002088401C80B200EE100A2080B8EE400A0B
:1017100020EE090A10EE100AFEF73BFF41EC100B19
:1017200000F02EFA53EC182B51EC100BFEF7A6FE2E
:1017300053EC182BFEF7FBFDFEF712FF296880B271
:101740004863012000F0D2FEDAE70000000000202C
:10175000C3F5C8400000000000407F40D0020020D8
:1017600010B5502080F31188BFF34F8FBFF36F8FF8
:1017700001F042FB18B104494FF08050086000208E
:1017800080F3118810BD000004ED00E030B593B087
:1017900030216846FEF7C0FD14210CA8FEF7BCFD01
:1017A0001E480025016841F080510160006800F08A
:1017B000805011901A48016841F48041016000682E
:1017C000022400F480401190012000900004019058
:1017D0008001CDE90640082008904FF4A870CDE9BB
:1017E000090404200B906846FFF7CAFA08B172B6E4
:1017F000FEE70CA90F2081E831004FF4A0500F90B4
:101800004FF48050109005210CA8FFF7BFF9002875
:1018100001D072B6FEE713B030BD00004038024080
:10182000007000400548016841F4700101600349FF
:101830004FF00060803908607047000088ED00E0DC
:101840000148FFF74CBD0000D00200200148FFF71F
:1018500046BD000010030020F0B50268254C264D5F
:10186000264E274F274B4FF0804CA04209D06045B1
:1018700007D0A84205D0B04203D0B84201D0984268
:1018800004D122F0700E4A6842EA0E02A0421BD038
:10189000604519D0A84217D0B04215D0B84213D035
:1018A000984211D0184DA8420ED0184DA8420BD026
:1018B000174DA84208D0174DA84205D0164DA84292
:1018C00002D0164DA84203D122F44075CA682A43BB
:1018D0004D6922F080022A4302608A68C2620A6867
:1018E0008262A04201D0984201D1096901630121BD
:1018F0004161F0BD000001400004004000080040CC
:10190000000C004000040140004001400044014040
:101910000048014000180040001C0040002000402A
:1019200010B501F01F030121046A99408C43046241
:10193000016A9A401143016210BD10B5846842EA01
:10194000032224F47F440A432243826010BD82684C
:1019500022F070020A4342F00701816070470000E4
:10196000F0B5026A22F001020262036A42688469E9
:10197000124E24F073050C682C4323F002058B688B
:101980002B430D4DA84201D0B04205D123F00807EA
:10199000CB683B4323F00403A84201D0B04205D1F9
:1019A0004D6922F4407215438A692A43426084617A
:1019B000496841630362F0BD00000140000401403A
:1019C000F0B5026A22F010020262026A436884697A
:1019D0000D6824F4E64444EA05248D6822F02002D0
:1019E00042EA05120F4D104EA84201D0B04206D176
:1019F000CF6822F0800242EA071222F04002A84299
:101A000001D0B04207D14D6923F4406343EA850316
:101A10008D6943EA8503436084614968816302629A
:101A2000F0BD00000000014000040140F0B5026A72
:101A300022F480720262026A4368C46922F400726E
:101A400024F073050C68124E2C438D6842EA05227F
:101A50000E4DA84201D0B04206D1CF6822F40062F8
:101A600042EA072222F48062A84201D0B04207D1A4
:101A70004D6923F4405343EA05138D6943EA051386
:101A80004360C4614968C1630262F0BD0000014067
:101A90000004014030B5026A22F480520262046AF6
:101AA0004268C3690D6823F4E64343EA05238D6861
:101AB00024F4005444EA0534084DA84202D0084DED
:101AC000A84204D14D6922F4804242EA8512426064
:101AD000C36149680164046230BD00000000014038
:101AE0000004014010B5036A046A24F00104046292
:101AF000846924F0F00444EA021423F00A020A4341
:101B00008461026210BD10B5036A23F01003036202
:101B10008369046A23F4704343EA023224F0A00389
:101B200043EA01118261016210BDFEE703B401982E
:101B30004100009850EAC12018BF04204A0D18BF88
:101B400040F0010040F2FF72B2EB515F08BF40F07D
:101B50000200012808BF052002B070470907090EDE
:101B6000002804DB00F1E02080F80014704700F04A
:101B70000F0000F1E02080F8141D70470000000005
:101B800010B52F499FED2C1B2DED020B84B005984D
:101B900020F000408842DCBF00209DED040B32DDC8
:101BA0002849884209D1049840B94FF0010000F05B
:101BB0006FFC00F03DFC06B010BD05DB9DED040B95
:101BC00000F02AFC06B010BD68469DED040B00F045
:101BD0003BF810F0030011D0012818D09DED021B36
:101BE0009DED000B02281AD000F04AFA51EC100BC0
:101BF00081F0004106B041EC100B10BD9DED021BC1
:101C00009DED000B012000F06FFB06B010BD9DEDB7
:101C1000021B9DED000B00F033FA06B010BD012051
:101C200000F062FB51EC100B81F0004106B041EC7A
:101C3000100B10BD000000000000000000000000BC
:101C4000FB21E93F0000F07F2DE9F14F04462DED27
:101C5000020B2DED088B8AB09FEDE70B80ED020B98
:101C6000139EE74826F0004585420ADC9DED120BE5
:101C7000002084ED000B0AB0BDEC088B03B0BDE87A
:101C8000F08FE0489FEDE0AB9FEDE1BBA84247DD60
:101C9000E14F9FEDE39B9FEDE48B9DED120B53EC29
:101CA0001A2B51EC100B002E1CDDFEF7E1FB41EC72
:101CB000100BBD4208D053EC1B2B51EC100BFEF760
:101CC000D7FBC4E900010BE053EC192B51EC100BCE
:101CD000FEF7CEFB53EC182BFEF7CAFBC4E900015C
:101CE0000120C8E7FEF723FB41EC100BBD4208D0F2
:101CF00053EC1B2B51EC100BFEF719FBC4E9000150
:101D00000BE053EC192B51EC100BFEF710FB53ECCE
:101D1000182BFEF70CFBC4E900014FF0FF30AAE7D7
:101D2000C348A84279DB9DED120B51EC100B00F07B
:101D3000B5FB41EC180B9FEDC00B53EC102BFEF7DD
:101D40009DFB9FEDBF1B53EC112BFEF7F0FAFEF746
:101D500060FD0746FEF73FFD41EC190B53EC1A2BD3
:101D6000FEF78CFB53EC182BFEF785FB41EC180BB0
:101D700053EC1B2B51EC190BFEF780FBDFF8C8A2CC
:101D800041EC100B4FEA15580125FA4453EC102B87
:101D900051EC180BFEF76CFB032DC4E900013DD09C
:101DA000C1F30A5005EB4511A8EB0000113981423F
:101DB00034DA0AEB051BB0EE48AA9BED000BF0EEFF
:101DC00068AA53EC102B51EC190BFEF757FB41ECB2
:101DD0001B0B51EC1A0B53EC1B2BFEF749FB41EC90
:101DE000180B51EC1A0B53EC182BFEF741FB53EC7C
:101DF0001B2BFEF73DFB9BED020B41EC1A0B53EC4A
:101E0000102B51EC190BFEF739FB53EC1A2BFEF794
:101E10002FFB41EC100B6D1CB8E70EE0002EA8BFA5
:101E20003846BFF628AF94ED000B51EC100B81F053
:101E30000041C4E9000178421DE7C6F3130040F4F5
:101E4000801EC6F30A50A0F2F530471100F01F05BE
:101E5000C5F12000DDF848B00890002006900790FA
:101E60000520EC467949002D07EB0002794408BFB4
:101E700051F8221009D051F8223001EB8201AB4019
:101E80004A68089922FA01F11943A1FB0E26A1FB29
:101E90000B131A449A4234BF0123002303EB0608B4
:101EA0000CEB8003D3E901A60E448E4234BF01211E
:101EB000002192448A4411B1924502D903E092452F
:101EC00001D2012100E00021C3E901A641444CF800
:101ED0002010011EA0F10100C4DC029800F10050A6
:101EE000850F0298DDE903678000DDF81480FEF7B6
:101EF00072FC41EC1A0B3046FEF77EFC9FED541B42
:101F000053EC112BFEF7BAFA41EC1B0B3846FEF7E7
:101F100073FC9FED511B53EC112BFEF7AFFA41EC14
:101F2000180B4046FEF768FC9FED4D1B53EC112B40
:101F3000FEF7A4FA41EC190B51EC180B53EC192BDA
:101F4000FEF7F5F953EC1B2BFEF7F1F953EC1A2BC6
:101F5000FEF7EDF9CDE90801002008909DED080B92
:101F600053EC1A2B51EC100BFEF782FA53EC1B2B9F
:101F7000FEF77EFA53EC182BFEF77AFA53EC192B86
:101F8000FEF779FA9FED381B53EC112BFEF776FA2A
:101F90009FED370B41EC180B53EC102B9DED080B0C
:101FA00051EC100BFEF76AFA53EC182BFEF7BFF951
:101FB0009FED310B41EC180B53EC102B9DED080BF2
:101FC00051EC100BFEF75AFA53EC182BFEF7AFF951
:101FD00041EC100B139810F0004F06D06D4251ECFD
:101FE000100B81F0004141EC100B284684ED000BF2
:101FF00041E60000000000000000000000000000BA
:10200000FB21E93F7CD9024000004054FB21F93F0D
:102010003163621A61B4D03DFB21F93F000000003A
:102020000000601A61B4D03D7370032E8A19A33B7F
:10203000FB2139410000000083C8C96D305FE43FD7
:10204000000000000000E03F5A120000A81100004C
:10205000000000000000103E000000000000103CE6
:10206000000000000000103A182D4454FB21F93DF7
:102070003326A611460B113C00000054FB21F93D0C
:1020800010B52DED040B2DED088B82B0B0EE419A0A
:10209000F0EE619A0B9820F000449FED4BABB4F149
:1020A000795F11DA9DED0A0B51EC100BFEF7B1FBD5
:1020B000002801BFB0EE4A0AF0EE6A0A02B0BDEC99
:1020C000088B04BF04B010BD9DED0A0B53EC102B20
:1020D00051EC100BFEF7D2F941EC180B3C480621ED
:1020E000B0EE480AF0EE680A784400F081F853EC4C
:1020F000182B51EC100BFEF7C1F99DED0A0B41ECCA
:102100001B0B53EC192B51EC100BFEF7B7F941ECFC
:10211000190B53EC1B2B51EC180BFEF7AFF953ECDA
:10212000192BFEF7A5F99FED2C0B41EC190B53EC85
:10213000102B51EC180BFEF7A1F941EC100B2848BD
:10214000844210DA53EC192B51EC100BFEF790F986
:1021500053EC1A2BFEF78FF941EC100B02B0BDECDB
:10216000088B04B010BD1F48A042BCBF9FED1E1BD2
:102170008DED001B06DBA4F50010019000200090FF
:102180009DED001B51EC100B53EC112BFEF770F979
:102190009DED000B41EC180B53EC102B51EC1A0B7E
:1021A000FEF766F941EC1A0B53EC192B51EC180BA6
:1021B000FEF75EF953EC1A2BFEF75DF941EC100BBC
:1021C000CCE7000000000000000000000000F03F2D
:1021D000CC0E000000000000000000000000E03F06
:1021E0003333D33F0000E93F000000000000D23F3E
:1021F00070B504462DED028B4D1E00EBC500B0EE10
:10220000408AF0EE608A90ED000B35F0060017D0A2
:1022100053EC182B51EC100BFEF730F941EC100B7E
:102220006D1E04EBC50090ED001B51EC100B53EC40
:10223000112BFEF77CF841EC100B35F00600E7D1CE
:10224000022D36D0042D1CD0062D1CBFBDEC028BF8
:1022500070BD53EC182B51EC100BFEF70FF994EDF9
:102260000A1B53EC112BFEF762F853EC182BFEF708
:1022700005F994ED081B53EC112BFEF758F841ECCF
:10228000100B53EC182B51EC100BFEF7F7F894EDF4
:10229000061B53EC112BFEF74AF853EC182BFEF7F4
:1022A000EDF894ED040B53EC102BFEF740F841ECE5
:1022B000100B53EC182B51EC100BFEF7DFF894EDDC
:1022C000021B53EC112BFEF732F853EC182BFEF7E0
:1022D000D5F894ED001B53EC112BFEF728F8BDEC5C
:1022E000028B41EC100B70BD31B504462DED040B93
:1022F0002DED0A8BB0EE41BAF0EE61BA0B989DED70
:102300000A0B20F00040B0F1795F0DDA51EC100BB0
:10231000FFF70CFC042808BF00F09AF89DED0A0BAB
:10232000BDEC0A8B05B030BD53EC102B51EC100BFB
:10233000FEF7A4F841EC180B9DED0A0B53EC182B9B
:1023400051EC100BFEF79AF841EC190B2C48B0EE4B
:10235000480AF0EE680A05217844FFF749FF9FED2F
:102360002ACBB0EE40AAF0EE60AA9CB353EC1C2B33
:1023700051EC190BFEF782F841EC1C0B53EC1A2BB5
:1023800051EC190BFEF77AF89FED210B41EC190B7C
:1023900053EC102B51EC1B0BFEF770F853EC192B80
:1023A000FEF766F853EC182BFEF768F853EC1B2B7E
:1023B000FEF75EF853EC1C2BFEF75AF89DED0A1B56
:1023C00053EC112BFEF757F8BDEC0A8B05B041EC2E
:1023D000100B30BDFFE753EC1A2B51EC180BFEF736
:1023E0004DF853EC1C2BFDF7A2FF53EC192BFEF715
:1023F00045F89DED0A1B53EC112BFDF798FFE3E721
:10240000540D000000000000495555555555C5BFF5
:10241000000000000000E03F10B553EC102B51EC21
:10242000100BFDF784FF41EC100B10BD0000000005
:102430009FED050B10B553EC102B51EC100BFEF774
:102440005BF941EC100B10BD000000000000000023
:102450009FED050B10B553EC102B51EC100BFEF754
:102460000DF841EC100B10BD000000000000001042
:1024700002E008C8121F08C1002AFAD1704770474D
:10248000002001E001C1121F002AFBD170470000AB
:1024900001490860704700007800002082B0CDE953
:1024A000000121F0004001909DED000B02B051ECC5
:1024B000100B7047FEF7BAFAFFF768F9FFF7B2F8AA
:1024C000FFF7C6F80548FEF78DFE00210348FFF729
:1024D00067F8FFF793F800F010F8FEE7D00200204D
:1024E00001460020842900D0C81C704710B500B9EF
:1024F000012000F01DFB002010BD10B500F03EFBD8
:10250000002010BD7FB50D4604464169B0F90800B2
:1025100081B1A16971B1FFF7E3FFD4E905128DE83C
:102520000700D4E900102B46226900F03AFC039022
:1025300004B070BDFFF7D4FF03A9CDE90001208AE4
:102540002B4682B2D4E9001000F0FEFB012801D036
:102550000020EDE70398EBE72DE9F041184C0F461A
:10256000054666692068001D00F01EFA38B920682B
:1025700090F82C1001208840A1698143A161681C5A
:1025800007D137B12168BDE8F0410E48091D00F0C0
:102590004FBA20683544B5424560216805D2A0682D
:1025A000BDE8F041091D00F02BBA6068091D00F07C
:1025B00027FA206B854200D22563BDE8F081000038
:1025C000180000202C0400202DE9F041054600F001
:1025D0003BFA2E4C2069401C206120682C4F10B122
:1025E000E06940B32DE025602069012829D100264B
:1025F00006EB860007EB800000F0F4F9761C072E4E
:10260000F6D323488C3000F0EDF92148A03000F0DB
:10261000E9F91F48B43000F0E5F91D48C83000F072
:10262000E1F91B48DC3000F0DDF919488C306060BE
:102630001430A06005E02068E96AC06A884200D8CA
:102640002560E06A401CE062E96A0120A2698840D6
:102650001043A06101EB810007EB8000291D00F011
:10266000E7F900F011FAE06900280CD02068E96A67
:10267000C06A884207D207494FF080500860BFF314
:102680004F8FBFF36F8FBDE8F0810000180000206E
:102690005003002004ED00E010B5044690F851000E
:1026A00058B101280CD002280FD0502080F3118897
:1026B000BFF34F8FBFF36F8FFEE7206B00F0F8F989
:1026C0002046BDE8104000F0F3B910BD10484FF4AB
:1026D0007051420706D0C01D0D4920F00700411A75
:1026E000C1F570510B4A00230144C2E900030839C7
:1026F000103A21F0070111604B600B600B1AC0E922
:10270000001393604FF000405360D06070470000AA
:102710004004002064000020144E154CA6F1C807A8
:102720004FF08058DFF84C9012E000BF00F08CF9B9
:10273000F068C568281D00F037F92069401E206147
:10274000E068401EE06000F09FF92846FFF7A4FF14
:10275000E0680028EAD138680128F9D9C9F8008072
:10276000BFF34F8FBFF36F8FF2E700001804002014
:102770001800002004ED00E02DE9F0479A46DDE95D
:10278000098481466FF00303206B03EB820210443F
:10279000089E20F00707780707D0502080F31188A3
:1027A000BFF34F8FBFF36F8FFEE7002561B10020AD
:1027B00023180A5C83F834200A5C12B1401C1028EC
:1027C000F6D384F8435001E084F83450072E00D348
:1027D0000626E662C4E91165201D00F00EF904F139
:1027E000180000F00AF92461C6F107006462A061D4
:1027F000E56484F8505052464946384600F0BEF829
:102800002060B8F1000F01D0C8F80040BDE8F087A3
:1028100030B5114900E011460A688242FBD34B688B
:102820005C18844203D140681844486008464368F5
:102830001C18944209D1084C103C2468A24209D0CB
:1028400052681A4442600A6812680260814200D0ED
:10285000086030BD0460F9E7640000200648416864
:10286000096829B14168C968C96849680163704746
:102870004FF0FF31FAE700001800002008484068D8
:10288000401C4FF0500080F3118804D0BFF34F8FED
:10289000BFF36F8FFEE7BFF34F8FBFF36F8FFEE77E
:1028A0006C0000202DE9F0410546002700F09CF95E
:1028B000314E306808B9FFF709FFF06805424BD187
:1028C000C5B3083568070ED005F00700C0F1080051
:1028D0000544680707D0502080F31188BFF34F8F5D
:1028E000BFF36F8FFEE72DB37068854234D822485E
:1028F000103001460C6801E020460C466168A94290
:1029000002D221680029F7D131688C4224D00768AF
:102910002168016060680837411B10290FD96019D0
:10292000420708D0502080F31188BFF34F8FBFF3C8
:102930006F8FFEE710E041606560FFF769FF616837
:102940007068401A7060B268904200D2B060F0685F
:1029500001430020C4E9000100F0B2FA780707D073
:10296000502080F31188BFF34F8FBFF36F8FFEE7C6
:102970003846BDE8F08100005400002010B5031F68
:102980004FF080741C601B1F21F001011960191F9A
:10299000044B0B6014390A60091F6FF002024438BF
:1029A0000A6010BD7D280008D0E9013201699A60F3
:1029B000D0E901235A604A68824201D182684A60A4
:1029C000002202610868401E086008687047000025
:1029D000034B036003F154000860802010607047CF
:1029E0007C00002000F108014FF0FF32C0E9011225
:1029F000C1600161002101607047002101617047E1
:102A000030B50B685A1C02D000F1080202E00269DE
:102A100004E02246546825689D42FAD953684B6009
:102A200099608A60516008610168491C016030BD8D
:102A300042684A6093688B6093685960916008614E
:102A40000168491C01607047502080F31188BFF372
:102A50004F8FBFF36F8F0A494868401C48600128B8
:102A60000CD10848006810F0FF0F07D0502080F309
:102A70001188BFF34F8FBFF36F8FFEE770470000E1
:102A80006C00002004ED00E00849486828B1401EB1
:102A9000486001D180F311887047502080F311887D
:102AA000BFF34F8FBFF36F8FFEE700006C00002075
:102AB00070B5002827D0144DA0F108046168E868BB
:102AC000014207D1502080F31188BFF34F8FBFF32D
:102AD0006F8FFEE722683AB1502080F31188BFF370
:102AE0004F8FBFF36F8FFEE78143616000F07CF88A
:102AF00060686968084468602046FFF789FEBDE8A1
:102B0000704000F0DDB970BD540000204FF0E020AF
:102B100000210161816105494FF47A720968B1FBB6
:102B2000F2F1491E41610721016170471400002044
:102B300010B5020014D00F48806B38B1502080F3DC
:102B40001188BFF34F8FBFF36F8FFEE700F04CF893
:102B500000211046FFF700FD00F0B2F9002807D170
:102B600005494FF080500860BFF34F8FBFF36F8F60
:102B700010BD00001800002004ED00E010B586B084
:102B80000024039405AA04A903A80494FFF720FFD6
:102B9000DDE903010094CDE9011000230EA11048E6
:102BA000059A00F0FEF80F490028486311D0502024
:102BB00080F31188BFF34F8FBFF36F8F4FF0FF305B
:102BC00008630120C8614C6106B0BDE8104000F008
:102BD00041B806B010BD000049444C45000000005B
:102BE00019270008180000200248816B491C8163E6
:102BF00070470000180000201448816B11B10121BA
:102C000041627047002141628169B1FA81F1C1F1ED
:102C10001F0101EB81020E4951F822306BB101EB2B
:102C2000820101F108034A6852684A609A4201D160
:102C300052684A60D16801607047502080F3118863
:102C4000BFF34F8FBFF36F8FFEE700001800002027
:102C5000500300201CB537480168374A914207D11C
:102C6000502080F31188BFF34F8FBFF36F8FFEE7C3
:102C700000683149491E884207D1502080F31188ED
:102C8000BFF34F8FBFF36F8FFEE72C490878019099
:102C9000FF20087008788DF800009DF800009DF86E
:102CA000002000F0F000904207D0502080F31188FF
:102CB000BFF34F8FBFF36F8FFEE79DF80000204BEF
:102CC00000F0500018700720986005E09DF8002083
:102CD00052008DF80020401E9DF800201206F5D409
:102CE0009860032807D0502080F31188BFF34F8FDE
:102CF000BFF36F8FFEE74FF4407098600198087043
:102D00000C482030016841F470010160016841F015
:102D100070410160FFF7FAFE00205860FDF764FA89
:102D20000848016841F040410160FDF749FA002080
:102D30001CBD000000ED00E071C20F4100E400E0A6
:102D40006C00002034EF00E02DE9FF5F8346DDE9F1
:102D50000E87994616468A469000FFF7A3FD0500A8
:102D60001CD05420FFF79EFD040014D000202563E2
:102D700084F85100CDE90240CDE900874B46324648
:102D800051465846FFF7F8FC2046FFF71DFC01208E
:102D900004B0BDE8F09F2846FFF78AFE4FF0FF30F1
:102DA000F6E7F0B585B0DDE90B640A9DA6B1DCB1AC
:102DB000542700972663022684F85160002604AF4A
:102DC000CDE90246CDE90057FFF7D6FC2046FFF7D4
:102DD000FBFB049805B0F0BD502080F31188BFF3D1
:102DE0004F8FBFF36F8FFEE7502080F31188BFF342
:102DF0004F8FBFF36F8FFEE72DE9F0412E4C002778
:102E0000A06B40B1206A401C2062606A00B10127BB
:102E10003846BDE8F0816669761C666113D160684A
:102E2000006838B1502080F31188BFF34F8FBFF393
:102E30006F8FFEE76068A1686160A060A06A401CB7
:102E4000A062FFF70BFD206BDFF87080864209D38C
:102E50006068006880B16068C068C568686886425C
:102E60000DD220632068C06A00EB800158F8210071
:102E70000128CAD90127C8E74FF0FF30F1E7281D24
:102E8000FFF792FDA86A18B105F11800FFF78CFD55
:102E9000E86A0121A26981401143A16100EB800130
:102EA00008EB8100291DFFF7C3FDE86A2168C96AA4
:102EB0008842CDD30127CBE7180000205003002023
:102EC0002DE9F0472C4D00242746A86B38B1FFF7B9
:102ED000BBFDA86B401EA863A86B40B146E0502024
:102EE00080F31188BFF34F8FBFF36F8FFEE729691F
:102EF000224E0120D1B3A6F1B40980463068E8B172
:102F0000F068C46804F11800FFF74EFD201DFFF7BC
:102F10004BFDE06AAA6908FA00F11143A96100EBD0
:102F2000800109EB8100211DFFF782FDE06A29681D
:102F3000C96A8842E2D3C5F82480DFE70CB1FFF705
:102F40008DFC2C6A44B14646FFF756FF00B16E6215
:102F5000641EF9D100202862686A38B10849012747
:102F600038070860BFF34F8FBFF36F8FFFF78CFDFB
:102F70003846BDE8F0870000180000200404002057
:102F800004ED00E0D8300008F11600080000000051
:102F900000000000800000000000000000000000B1
:102FA00000000000000000000102030406070809F9
:102FB00000000000010203044C5555555555A53F2E
:102FC0007751C1166CC156BF9015CB19A001FA3EBE
:102FD000AD529C804F7E92BEC4B1B4BD9EEE213EE8
:102FE000D43888BEE9FAA8BD00004054FB21F93F5F
:102FF0003163621A61B4D03D0000601A61B4D03D03
:103000007370032E8A19A33B0000002E8A19A33B7C
:10301000C14920259A837B39000000000000000090
:103020006E83F9A22915444ED15727FCC0DD34F533
:10303000999562DB4190433CAB6351FE61C5BBDEB9
:103040003A6E24B7E0D24D42EA2E49061C92D109CD
:103050001CEB1DFE3EA729B1F53582E88444BB2E4A
:1030600026709CE9417E5FB439D69139F439538397
:103070008B5F849C3B28F9BDFF97F81F0F9805DEF6
:103080008B112FEF1F6D0A5ACF7E366DB709CB27F4
:10309000663F464F2DEA5F9EC7BA27757BF1E5EB89
:1030A000F739073DEA92528AB15FFB6B085D8D1FCD
:1030B000A6F810111111813FD561C119A0012ABFD5
:1030C0007DFEB157E31DC73EEB9C2B8AE6E55ABE59
:1030D0007CD5CF5A3AD9E53D4272656174685F4C40
:1030E00065645F7461736B000831000800000020A4
:1030F0007C00000070240008843100087C0000205F
:10310000C44300008024000800000000000000000C
:103110000100000010000000000000000024F40086
:10312000000000000000000000000000000000009F
:10313000000000000000000000000000000000008F
:10314000000000000000000000000000000000007F
:10315000000000000000000000000000000000006F
:10316000000000000000000000000000000000005F
:103170000000000000000000AAAAAAAA00000000A7
:04318000000000004B
:040000050800018965
:00000001FF
