:020000040800F2
:1000000068040020A10100088B1100088710000877
:1000100089110008AD020008271500080000000043
:100020000000000000000000000000008F11000828
:10003000AF020008000000008D11000891110008B7
:1000400029150008BB010008BB010008BB0100081E
:10005000BB010008BB010008BB010008BB01000890
:10006000BB010008BB010008BB010008BB01000880
:10007000BB010008BB010008BB010008BB01000870
:10008000BB010008BB010008BB010008BB01000860
:10009000BB010008BB010008BB010008BB01000850
:1000A000BB010008BB010008BB010008BB01000840
:1000B000BB01000849120008BB010008BB01000891
:1000C000BB010008BB010008BB010008BB01000820
:1000D000BB010008BB010008BB010008BB01000810
:1000E000BB010008BB010008BB010008BB01000800
:1000F000BB010008BB010008BB010008BB010008F0
:10010000BB010008BB010008BB010008BB010008DF
:10011000BB010008BB010008BB010008BB010008CF
:10012000BB010008BB010008BB010008BB010008BF
:10013000BB010008BB010008BB010008BB010008AF
:10014000BB010008BB010008BB010008BB0100089F
:10015000BB010008BB010008BB010008BB0100088F
:10016000BB010008BB010008BB010008BB0100087F
:10017000BB010008BB010008BB0100080000000033
:10018000BB010008BB010008DFF810D000F07CF8CC
:100190000048004775150008AFF300806804002090
:1001A0000648804706480047FEE7FEE7FEE7FEE711
:1001B000FEE7FEE7FEE7FEE7FEE7FEE72D1200089A
:1001C000890100082DE9F05F0546002092469B4614
:1001D00088460646814640241BE02846414647465D
:1001E000224600F041F853465A46C01A914110D3B6
:1001F00011461846224600F028F82D1A67EB010830
:100200004F4622460120002100F01FF817EB00099D
:100210004E41201EA4F10104DFDC484631462A4647
:100220004346BDE8F09FD2B201E000F8012B491E21
:10023000FBD270470022F6E710B513460A46044683
:100240001946FFF7F0FF204610BD202A04DB203AB4
:1002500000FA02F1002070479140C2F1200320FA19
:1002600003F3194390407047202A04DB203A21FA17
:1002700002F00021704721FA02F3D040C2F12002BF
:100280009140084319467047064C074D06E0E06868
:1002900040F0010394E8070098471034AC42F6D3CD
:1002A000FFF776FFE015000800160008FEE770472C
:1002B00072B6FEE770B5044600F0EAF80546601C29
:1002C00002D004480078044400F0E2F8401BA04249
:1002D000FAD370BD000000202DE9F84F00224FF046
:1002E000010803254FF00F0E0B6808FA02F42340B3
:1002F000A3426ED14E68012E05D0022E03D0112EDE
:1003000001D0122E12D186684FEA420C05FA0CF782
:10031000BE43CF6807FA0CF7374387604668A643A9
:100320000C79C4F30014944034434460C668570009
:1003300005FA07FC8C6826EA0C06BC403443C4600E
:100340004C68022C01D0122C13D1D40800EB840489
:10035000A346D4F8209054074FEAD46A0EFA0AF65E
:1003600029EA06090E6906FA0AF646EA0906CBF8F2
:10037000206006680C7926EA0C0604F00304BC40F1
:10038000344304604C68E40065D5364C266846F476
:1003900080462660246822F0030604F4804400941A
:1003A000314C3444A446D4F808489607370F0EFA67
:1003B00007F6B4432D4EB04201D1002624E02C4E66
:1003C000B04201D101261FE02A4EB04202D10226DE
:1003D0001AE040E0284EB04201D1032614E0274E37
:1003E000B04201D104260FE0254EB04201D10526CE
:1003F0000AE0244EB04201D1062605E0224EB0426A
:1004000001D1072600E00826BE402643CCF8086844
:100410001E4E34684F689C43FF0300D51C43346074
:100420001A4C241D26684F689E43BF0300D51E4307
:100430002660164E083634684F689C43FF0200D58C
:100440001C433460114E0C3634684F689C43BF0225
:1004500000D51C433460521C102AFFF445AFBDE8A0
:10046000F88F000044380240003001400000024094
:100470000004024000080240000C0240001002404C
:100480000014024000180240001C0240003C0140E1
:100490000148806870470000000000200248816821
:1004A0000278114481607047000000200B4810B5AD
:1004B000016841F400710160016841F480610160EC
:1004C000016841F480710160032000F06FF80020A2
:1004D00000F006F800F024F8002010BD003C0240B7
:1004E00070B50D4D04464FF47A712878B1FBF0F0E9
:1004F0000A490968B1FBF0F000F0E2FA48B9102CA3
:1005000007D200222146501E00F030F800206C6017
:1005100070BD012070BD0000000000200C00002014
:100520000A4808B5016841F480410160006800F4A0
:10053000804000900548001F016841F08051016033
:10054000006800F08050009008BD00004438024070
:10055000002809DB00F01F020121914040098000C2
:1005600000F1E020C0F8001170470000F0B40E4B1D
:100570001B680C46C3F30223C3F10705042D00D901
:100580000425191D072901D2002300E0DB1E0126E6
:1005900006FA05F1491E214099409E40761E1640FC
:1005A0003143F0BC00F0C6BF0CED00E0064900F09E
:1005B000070208684FF6FF03184040EA0220034A8A
:1005C00010430860704700000CED00E00000FA05E1
:1005D0002DE9F0470E46050065D0DFF81481D8F804
:1005E0000000F7B200F00F00B04207D288F80070A8
:1005F000D8F8000000F00F00B04254D128683D4CFC
:10060000810712D5400703D5206840F4E0502060F0
:100610002878000703D5206840F4604020602068F7
:10062000A96820F0F000084320602878C0072DD08A
:10063000304968680839012812D0022813D00328ED
:1006400011D00968890700292DDA216821F00301FA
:1006500001432160FFF71CFF814641F2883A0EE01A
:1006600009688903EFE709688901ECE7FFF710FFE4
:10067000A0EB0901514502D90320BDE8F0872068AD
:10068000696800F00C00B0EB810FEFD1D8F80010D2
:10069000404601F00F01B14207D90770006800F031
:1006A0000F00B04201D00120E7E72878400705D5C8
:1006B0002068E96820F4E0500843206028780007AB
:1006C00006D52068296920F4604040EAC100206016
:1006D00000F018F82168084AC1F30311515CC840C2
:1006E0000649086006480068FFF7FAFE0020C4E7E4
:1006F000003C024008380240D01500080C000020E1
:1007000004000020154810B5006810F00C021448D1
:1007100013D04110042A0FD0082A0ED10F4C241FE9
:100720002268236802F03F025B0207D52068C0F30D
:100730008810A0FB010106E0084610BD2168C1F346
:100740008811A1FB00010023FFF73CFD2168C1F3E4
:100750000141491C4900B0FBF1F010BD08380240CE
:100760000024F4002DE9F84F04006ED02078DFF863
:100770003C93C007A9F104054AD009F104000168BF
:10078000C1F38101012908D00068C0F3810002286B
:100790000AD1D9F80000400206D52868800337D571
:1007A00060680028E1D033E06068B0F5803F10D089
:1007B000B0F5A02F286810D020F480302860286879
:1007C00020F4802028606068A8B1FFF761FE06462B
:1007D0000DE0286840F48030F4E740F48020286081
:1007E000F7E700BFFFF754FE801B642873D8286822
:1007F0008003F7D50CE0FFF74BFE064605E000BF8F
:10080000FFF746FE801B6428F0D828688003F7D4E1
:100810002078DFF89C8280074FF0000A3ED5A3487D
:10082000001D016811F00C0F08D00068C0F38100B2
:1008300002280BD1D9F80000400207D428688007AD
:1008400016D5E068012800D112E02BE1E068B8B1CC
:100850000120C8F80000FFF71BFE064605E000BFB8
:10086000FFF716FE801B0228C0D828688007F7D53E
:100870002868216920F0F80040EAC10028600DE0F6
:10088000C8F800A0FFF704FE064604E0FFF700FEEC
:10089000801B02281FD828688007F7D4207800071B
:1008A00022D5824E83486169703671B101210160A1
:1008B000FFF7EEFD074604E0FFF7EAFDC01B022844
:1008C00009D830688007F7D50EE0C0F800A0FFF720
:1008D000DFFD074605E082E0FFF7DAFDC01B0228D6
:1008E0007DD830688007F7D42078400768D5DFF8D6
:1008F000BCB100270BF13C0BDBF80000C0000BD4AF
:10090000DBF8001041F08051CBF80010DBF800005C
:10091000012700F080500090674E3068C00510D469
:10092000306840F480703060FFF7B2FD009005E061
:10093000FFF7AEFD0099401A022850D83068C00574
:10094000F6D55A4EA0686C3601280FD005283068BD
:1009500010D020F001003060306820F004003060DA
:10096000A068B8B1FFF794FD00900FE0306840F048
:100970000100F4E740F004003060F7E7FFF788FD7E
:100980000099411A41F28830814266D83068800768
:10099000F4D50EE0FFF77CFD009007E0FFF778FD4F
:1009A0000099411A41F28830814256D83068800758
:1009B000F4D42FB1DBF8001021F08051CBF80010F7
:1009C000A069C8B33949091D0968C1F38101022929
:1009D0004AD00228504607D0C8F8600000E03CE04A
:1009E000FFF756FD04463BE04746C8F86000FFF7B6
:1009F0004FFD064605E000BFFFF74AFD801B0228B9
:100A00002BD828688001F7D4D4E907010843A16AEC
:100A10002A4A490802EB0141626A41EA821108430D
:100A200094F82C1040EA0161C9F8001001203866E2
:100A3000FFF72EFD044606E036E000BFFFF728FD75
:100A4000001B022809D828688001F7D52CE000BFD8
:100A5000FFF71EFD001B022802D90320BDE8F88F16
:100A600028688001F4D41FE00128F7D0D9F80000ED
:100A7000E26900F48001914214D1226A00F03F0142
:100A800091420FD147F6C071626A0140914209D18B
:100A9000A26A00F44031914204D1E16A00F0706032
:100AA000884201D00120D9E70020D7E7043802406E
:100AB00000004742800E4742007000400000FFFFE8
:100AC00010B5401EB0F1807F01D3012010BD4FF062
:100AD000E02460610F21601700F02CFD0020A06170
:100AE00007202061002010BD7047704770B590F856
:100AF0003C20012A32D0012480F83C40022280F8B8
:100B00003D2003685A689D6822F070060A683243E7
:100B10005A60134B02689A4214D0B2F1804F11D040
:100B2000104B9A420ED0104B9A420BD00F4B9A4268
:100B300008D00F4B9A4205D00E4B9A4202D00E4B72
:100B40009A4204D1496825F080031943916080F8E6
:100B50003D40002180F83C10084670BD022070BD69
:100B6000000001400004004000080040000C00406C
:100B700000040140004001400018004010B504008E
:100B800003D094F83D0010B107E0012010BD002013
:100B900084F83C00204600F00DF8022084F83D0067
:100BA000211D206800F056FB012084F83D00002044
:100BB00010BD000008B500680B49884212D10B48EF
:100BC000016841F0020101600068002200F00200AB
:100BD000009011461D20FFF7C9FCBDE808401D200C
:100BE000FFF7B6BC08BD00000004004040380240DA
:100BF0000168CA6842F00102CA600068816801F0B9
:100C00000701062903D0016841F0010101600020BD
:100C1000704770B5044690F83C00012817D00125B4
:100C200084F83C50022084F83D002068826822F05D
:100C3000770222F47F4282600868502830D00DDCB1
:100C400020284DD005DC98B310283BD148E0022085
:100C500070BD302844D0402834D139E0602828D0F5
:100C6000702806D0B0F5805F2CD0B0F5005F29D198
:100C70000AE0CB68D1E90121206800F05CFB206824
:100C8000816841F0770109E0CB68D1E90121206852
:100C900000F051FB2068816841F48041816011E0DF
:100CA000CA684968206800F01BFC5021206807E0F2
:100CB00016E0CA684968206800F023FC60212068BB
:100CC00000F043FB84F83D50002084F83C0070BDE8
:100CD000CA684968206800F003FC40212068EFE7FB
:100CE000226801461046EBE7704770B5044600687D
:100CF00001694FF00005C943890715D4C168C9438C
:100D0000890711D4E91E01610120207720688069DC
:100D10008007204602D0FFF7E7FF04E000F0C0F8AC
:100D2000204600F042F9257720680169C943490748
:100D300017D4C168C943490713D46FF00401016196
:100D4000022020772068806910F4407F204602D07E
:100D5000FFF7CAFF04E000F0A3F8204600F025F9F1
:100D6000257720680169C943090716D4C168C943BA
:100D7000090712D46FF00801016104202077206870
:100D8000C0698007204602D0FFF7AEFF04E000F004
:100D900087F8204600F009F9257720680169C943E2
:100DA000C90617D4C168C943C90613D46FF010012E
:100DB0000161082020772068C06910F4407F204638
:100DC00002D0FFF791FF04E000F06AF8204600F03F
:100DD000ECF8257720680169C943C90708D1C168C3
:100DE000C943C90704D1891E0161204600F000F9FA
:100DF00020680169C943090609D4C168C9430906C5
:100E000005D46FF0800101612046FFF76DFE206878
:100E10000169C943490609D4C168C943490605D4D3
:100E20006FF040010161204600F0E3F8206801699D
:100E3000C94389060BD4C168C943890607D46FF03A
:100E4000200101612046BDE87040FFF74EBE70BD35
:100E500010B586B0044614216846FFF7EBF90D493A
:100E60002068884214D10C480021026842F0010237
:100E70000260006800F00100059040200090022010
:100E8000CDE90101CDE9031069460448FFF724FAD2
:100E900006B010BD0004004030380240000002409F
:100EA000704770B5044690F83C000D4601280DD0FF
:100EB000012684F83C60022084F83D0042B1042AF7
:100EC00018D0082A2AD00C2A4DD139E0022070BD52
:100ED000206800F043FA2068816941F008018161CF
:100EE0002068816921F004018161206881692A6993
:100EF000114311E0206800F061FA2068816941F433
:100F0000006181612068816921F4806181612068CC
:100F100081692A6941EA0221816124E0206800F0A8
:100F200083FA2068C16941F00801C1612068C16984
:100F300021F00401C1612068C1692A69114311E0EF
:100F4000206800F0A5FA2068C16941F40061C16120
:100F50002068C16921F48061C1612068C1692A6982
:100F600041EA0221C16184F83D60002084F83C0020
:100F700070BD10B5040003D094F83D0010B107E037
:100F8000012010BD002084F83C00204600F00CF841
:100F9000022084F83D00211D206800F05BF901204B
:100FA00084F83D00002010BD7047704710B504461E
:100FB0000068012200F0B2F90B492068884202D093
:100FC0000A49884203D1416C41F4004141642068E0
:100FD000816801F00701062903D0016841F0010191
:100FE0000160002010BD000000000140000401402D
:100FF0007047704700F042B810B501684A68D243A4
:10100000920507D48A68D243D20703D1921E8A6020
:10101000FFF7F0FF10BD10B504000FD000F010F87E
:10102000E068216840F0800008606168206908433A
:10103000A168084321684860002010BD012010BD50
:1010400008B500680B49884212D10B48016841F489
:10105000006101600068002200F400600090114609
:101060001046FFF783FABDE808400020FFF770BA8A
:1010700008BD0000002C004040380240C1680068F4
:10108000016000207047FEE7094808B5016841F09B
:1010900080010160016801F080010091016841F068
:1010A00001010160006800F00100009008BD00002F
:1010B0003038024010B58EB000240794089409948B
:1010C0000A940B941C2168460C94FFF7B3F81F4850
:1010D0001D4901605321C0E9011440F2E731C0E924
:1010E000031480218161FFF749FD08B1FFF7E0F8A3
:1010F0004FF48050079007A91448FFF78AFD08B104
:10110000FFF7D6F81148FFF734FF08B1FFF7D0F822
:101110000B940BA90D480C94FFF7E8FC08B1FFF7FE
:10112000C7F86020CDE90004029400226946074810
:101130000494FFF7B6FE08B1FFF7BAF80348FFF7CB
:1011400087FE0EB010BD000000040040100000201B
:101150000C4810B50A4901604FF4C07141605F212D
:1011600081607F21C1604FF400710161FFF753FF7F
:10117000002803D0BDE81040FFF79AB810BD00006A
:10118000002C004050000020FEE7FEE7704770474B
:10119000FFF784B930B593B030216846FFF74AF8BD
:1011A00014210CA8FFF746F81E480025016841F0FD
:1011B00080510160006800F0805011901A48016869
:1011C00041F4804101600068022400F480401190E5
:1011D00001200090000401908001CDE90640082024
:1011E00008904FF4A870CDE9090404200B906846DC
:1011F000FFF7B8FA08B172B6FEE70CA90F2081E834
:1012000031004FF4A0500F904FF480501090052102
:101210000CA8FFF7DDF9002801D072B6FEE713B085
:1012200030BD0000403802400070004005480168B1
:1012300041F47001016003494FF00060803908609B
:101240007047000088ED00E00148FFF74EBD000048
:1012500010000020F0B50268254C264D264E274F81
:10126000274B4FF0804CA04209D0604507D0A842E0
:1012700005D0B04203D0B84201D0984204D122F048
:10128000700E4A6842EA0E02A0421BD0604519D097
:10129000A84217D0B04215D0B84213D0984211D00E
:1012A000184DA8420ED0184DA8420BD0174DA84299
:1012B00008D0174DA84205D0164DA84202D0164DB1
:1012C000A84203D122F44075CA682A434D6922F02E
:1012D00080022A4302608A68C2620A688262A0426F
:1012E00001D0984201D10969016301214161F0BD3A
:1012F000000001400004004000080040000C0040D5
:101300000004014000400140004401400048014009
:1013100000180040001C00400020004010B501F003
:101320001F030121046A99408C430462016A9A40B8
:101330001143016210BD10B5846842EA032224F40F
:101340007F440A432243826010BD826822F070020B
:101350000A4342F00701816070470000F0B5026A5D
:1013600022F001020262036A42688469124E24F08C
:1013700073050C682C4323F002058B682B430D4D3D
:10138000A84201D0B04205D123F00807CB683B4307
:1013900023F00403A84201D0B04205D14D6922F4E4
:1013A000407215438A692A434260846149684163F7
:1013B0000362F0BD0000014000040140F0B5026A84
:1013C00022F010020262026A436884690D6824F404
:1013D000E64444EA05248D6822F0200242EA051220
:1013E0000F4D104EA84201D0B04206D1CF6822F076
:1013F000800242EA071222F04002A84201D0B04225
:1014000007D14D6923F4406343EA85038D6943EABC
:10141000850343608461496881630262F0BD000016
:101420000000014000040140F0B5026A22F480721D
:101430000262026A4368C46922F4007224F07305F0
:101440000C68124E2C438D6842EA05220E4DA842CC
:1014500001D0B04206D1CF6822F4006242EA0722EE
:1014600022F48062A84201D0B04207D14D6923F432
:10147000405343EA05138D6943EA05134360C46191
:101480004968C1630262F0BD0000014000040140F0
:1014900030B5026A22F480520262046A4268C3696B
:1014A0000D6823F4E64343EA05238D6824F40054D1
:1014B00044EA0534084DA84202D0084DA84204D1A0
:1014C0004D6922F4804242EA85124260C361496854
:1014D0000164046230BD00000000014000040140CE
:1014E00010B5036A046A24F001040462846924F0DC
:1014F000F00444EA021423F00A020A4384610262FF
:1015000010BD10B5036A23F0100303628369046AF7
:1015100023F4704343EA023224F0A00343EA0111AA
:101520008261016210BDFEE70148FFF765BD000062
:10153000500000200907090E002804DB00F1E0201C
:1015400080F80014704700F00F0000F1E02080F8F0
:10155000141D704702E008C8121F08C1002AFAD102
:1015600070477047002001E001C1121F002AFBD123
:10157000704700000024FEF799FFFFF70BFEFFF70E
:1015800083FDFFF797FDFFF7E3FD1048FFF730FB02
:1015900000210E48FFF70AFD0C4D4FF47A76641CCB
:1015A0002868A4B244630120FEF784FEB442F6D357
:1015B00006E02868641EA4B244630120FEF77AFEA8
:1015C000002CF6D1C820FEF775FEE8E710000020D9
:1015D00000000000000000000102030406070809E3
:1015E000001600080000002010000000541500083C
:1015F00010160008100000205804000064150008B0
:101600000100000010000000000000000024F400B1
:040000050800018965
:00000001FF
