:020000040800F2
:10000000104C0020E90200081B1200081B11000818
:1000100019120008CB0500080514000800000000B4
:10002000000000000000000000000000290200089D
:10003000CF05000800000000850200085D120008DE
:100040000303000803030008030300080303000878
:100050000303000803030008030300080303000868
:100060000303000803030008030300080303000858
:100070000303000803030008030300080303000848
:100080000303000803030008030300080303000838
:100090000303000803030008030300080303000828
:1000A0000303000803030008030300080303000818
:1000B0000303000803030008030300080303000808
:1000C00003030008030300080303000803030008F8
:1000D00003030008030300080303000803030008E8
:1000E00003030008030300080303000803030008D8
:1000F00003030008030300080303000803030008C8
:1001000003030008030300080303000803030008B7
:100110000303000803030008311300080303000869
:100120000303000803030008030300080303000897
:100130000303000803030008030300080303000887
:100140000303000803030008030300080303000877
:100150000303000803030008030300080303000867
:100160000303000803030008030300080303000857
:100170000303000803030008030300080000000055
:10018000030300080303000800F002F800F03CF845
:100190000AA090E8000C82448344AAF10107DA45E2
:1001A00001D100F031F8AFF2090EBAE80F0013F0F8
:1001B000010F18BFFB1A43F001031847042C00007D
:1001C000242C0000103A24BF78C878C1FAD852070E
:1001D00024BF30C830C144BF04680C6070470000C1
:1001E0000023002400250026103A28BF78C1FBD840
:1001F000520728BF30C148BF0B6070471FB502F0DF
:100200008DFD1FBD10B510BD00F0A6F91146FFF71A
:10021000F5FF01F00EF900F0C4F903B4FFF7F2FFA7
:1002200003BC00F0CBF900002C4B19680868B0E85B
:10023000F04F80F30988BFF36F8F4FF0000080F319
:10024000118870470000000008480068006880F3CB
:1002500008884FF0000080F3148862B661B6BFF3DF
:100260004F8FBFF36F8F00DF00BF00BF08ED00E0CE
:10027000DFF80C00016841F470010160704700BFB5
:1002800088ED00E0EFF30980BFF36F8F134B1A681E
:100290001EF0100F08BF20ED108A20E9F04F10600B
:1002A00009B44FF0500080F31188BFF34F8FBFF3B4
:1002B0006F8F01F0C1FF4FF0000080F3118809BC7F
:1002C00019680868B0E8F04F1EF0100F08BFB0ECD6
:1002D000108A80F30988BFF36F8F704728000020D1
:1002E000EFF3058070470000094880470948004740
:1002F000FEE7FEE7FEE7FEE7FEE7FEE7FEE7FEE7D6
:10030000FEE7FEE704480549054A064B7047000032
:10031000211300088901000810460020104C00201D
:10032000104800201048002053EA020C00F06980B9
:100330002DE9F04B4FF00006002B1FBFB3FA83F5F9
:1003400003FA05F424FA05F65E4012BF1643B2FA2A
:1003500082F502FA05F4C5F120051EBF22FA05FC5C
:1003600044EA0C04203556EA044C4FEA144418BF02
:10037000641C4FF000084FF00009904271EB030C31
:1003800039D3002919BFB1FA81F701FA07F6B0FA9B
:1003900080F700FA07F6C7F120071EBF20FA07FC16
:1003A00046EA0C062037B6FBF4FCA7EB0507103F26
:1003B00007F01F0BCBF120060CFA0BFB2CFA06F60C
:1003C00044BFB3460026202FA4BF5E464FF0000B6B
:1003D0005BEA060C08BF4FF0010B19EB0B09ABFBF6
:1003E000027C48EB0608C01B06FB02CC0BFB03CCCF
:1003F00071EB0C01C1E70B46024641464846BDE899
:10040000F08B13B54FF000004FF00001AFF3008008
:10041000BDE81C407047032A40F2308010F0030C06
:1004200000F0158011F8013BBCF1020F624498BF47
:1004300011F801CB00F8013B38BF11F8013BA2F1E4
:10044000040298BF00F801CB38BF00F8013B11F05F
:10045000030300F02580083AC0F0088051F8043BFF
:10046000083A51F804CBA0E80810F5E7121D5CBF6C
:1004700051F8043B40F8043BAFF30080D20724BF9F
:1004800011F8013B11F801CB48BF11F8012B24BF33
:1004900000F8013B00F801CB48BF00F8012B704782
:1004A00010B5203AC0F00B80B1E81850203AA0E80F
:1004B0001850B1E81850A0E81850BFF4F5AF5FEA43
:1004C000027C24BFB1E81850A0E8185044BF18C9F6
:1004D00018C0BDE810405FEA827C24BF51F8043B9D
:1004E00040F8043B08BF7047D20728BF31F8023BF1
:1004F00048BF11F8012B28BF20F8023B48BF00F885
:10050000012B70474FF0000200B513469446964603
:10051000203922BFA0E80C50A0E80C50B1F1200116
:10052000BFF4F7AF090728BFA0E80C5048BF0CC0C4
:100530005DF804EB890028BF40F8042B08BF704722
:1005400048BF20F8022B11F0804F18BF00F8012B94
:100550007047704770477047754600F02BF8AE46FD
:1005600005006946534620F00700854618B020B5BF
:10057000FFF7C8FEBDE820404FF000064FF000072F
:100580004FF000084FF0000B21F00701AC46ACE83B
:10059000C009ACE8C009ACE8C009ACE8C0098D46A8
:1005A000704710B50446AFF300802046BDE8104008
:1005B000FFF733BE00487047AC45002001491820C2
:1005C000ABBEFEE7260002007047FEE770477047AB
:1005D0002DE9F84FDFF8BCA1002201250AF1040B38
:1005E00003264FF00F090BF1040E00BF0B6805FA4C
:1005F00002F42340A34270D10F7907F00307012FC3
:1006000001D0022F16D187684FEA420806FA08FC8B
:1006100027EA0C07D1F80CC00CFA08FC4CEA070CCE
:10062000C0F808C04768A7430C79C4F3001494408D
:100630003C4344600C79E443A4070AD0C4684FEA01
:10064000420C06FA0CF7BC438F6807FA0CF72743F5
:10065000C7600C7904F00304022C12D1D40800EB1B
:10066000840CDCF820405707FF0E09FA07F824EA4B
:100670000804D1F8108008FA07F848EA0408CCF812
:10068000208004684FEA420C06FA0CF7BC430F794D
:1006900007F0030707FA0CF7274307604C6814F4C8
:1006A000403F70D03C4C276847F48047276024685F
:1006B00022F0030704F480440094384C07EB040C48
:1006C000DCF8084897074FEA177809FA08F7BC439F
:1006D000334FB84202D1002724E054E0314FB842F2
:1006E00001D101271EE0304FB84201D1022719E0A5
:1006F0002E4FB84201D1032714E02D4FB84201D14B
:1007000004270FE02B4FB84201D105270AE02A4FFA
:10071000B84201D1062705E0284FB84201D107278A
:1007200000E0082707FA08F72743CCF80878DAF83A
:1007300000405746D1F804C09C435FEACC3C00D54A
:100740001C433C60DBF800405F46D1F804C09C438A
:100750005FEA8C3C00D51C433C60DEF800407746E5
:10076000D1F804C09C435FEACC2C00D51C433C600C
:10077000084F0C373C68D1F804C09C435FEA8C2CCE
:1007800000D51C433C60521C102AFFF42FAFBDE87B
:10079000F88F0000003C0140443802400030014026
:1007A000000002400004024000080240000C024029
:1007B000001002400014024000180240001C0240D9
:1007C000426921EA02030A4043EA0241816170471B
:1007D0000AB1816170470904FBE7000001488068A5
:1007E0007047000018000020024881680278114418
:1007F00081607047180000200B4810B5016841F473
:1008000000710160016841F480610160016841F498
:1008100080710160032000F08DF80F2000F006F8D1
:1008200000F03EF8002010BD003C024010B501462B
:1008300088B00022362000F05DF8362000F04CF839
:1008400013480024016841F010010160006805A907
:1008500000F010000690684600F018F900F036F934
:100860000C494000B0FBF1F10C480B4A491E0260F4
:1008700040F2E732C0E90324C0E9011400F01EFB96
:1008800010B1012008B010BD044800F045FBF9E7A5
:100890004038024040420F00001000404C0700204A
:1008A0000C4882B0016841F480410160006800F4A6
:1008B000804000900748001F016841F080510160AE
:1008C0000068002200F0805000900F21901E02B0BE
:1008D00000F010B844380240002809DB00F01F0285
:1008E000012191404009800000F1E020C0F8001192
:1008F00070470000F0B40E4B1B680C46C3F3022394
:10090000C3F10705042D00D90425191D072901D2BB
:10091000002300E0DB1E012606FA05F1491E2140F6
:1009200099409E40761E16403143F0BC00F06BBDEE
:100930000CED00E0064900F0070208684FF6FF03DF
:10094000184040EA0220034A104308607047000044
:100950000CED00E00000FA052DE9F0470E46050019
:1009600065D0DFF81481D8F80000F7B200F0070076
:10097000B04207D288F80070D8F8000000F00700F5
:10098000B04254D128683D4C810712D5400703D5A9
:10099000206840F4E05020602878000703D52068E4
:1009A00040F4604020602068A96820F0F00008430F
:1009B00020602878C0072DD03049686808390128A0
:1009C00012D0022813D0032811D009688907002902
:1009D0002DDA216821F0030101432160FFF7FEFEBB
:1009E000814641F2883A0EE009688903EFE7096819
:1009F0008901ECE7FFF7F2FEA0EB0901514502D9AE
:100A00000320BDE8F0872068696800F00C00B0EBB7
:100A1000810FEFD1D8F80010404601F00701B14234
:100A200007D90770006800F00700B04201D001202C
:100A3000E7E72878400705D52068E96820F4E0500A
:100A4000084320602878000706D52068296920F42B
:100A5000604040EAC100206000F048F82168084A80
:100A6000C1F30311515CC84006490860064800689C
:100A7000FFF7DCFE0020C4E7003C024008380240DB
:100A8000842D0008240000201C0000200F2202609A
:100A90000C4A136803F003034360136803F0F00388
:100AA0008360136803F4E053C36012684FF4E053AB
:100AB00003EAD20202610448006800F007000860FF
:100AC0007047000008380240003C024004480549D5
:100AD00000680968044AC1F38221515CC84070472C
:100AE0002400002008380240942D0008154810B555
:100AF000006810F00C02144813D04110042A0FD0E3
:100B0000082A0ED10F4C241F2268236802F03F02EE
:100B10005B0207D52068C0F38810A0FB010106E046
:100B2000084610BD2168C1F38811A1FB0001002314
:100B3000FFF7FAFB2168C1F30141491C4900B0FBF2
:100B4000F1F010BD083802400024F4002DE9F84F00
:100B500004006ED02078DFF84C93C007A9F104059B
:100B60004AD009F104000168C1F38101012908D0CC
:100B70000068C0F3810002280AD1D9F800004002C1
:100B800006D52868800337D560680028E1D033E0B7
:100B90006068B0F5803F10D0B0F5A02F286810D065
:100BA00020F480302860286820F480202860606865
:100BB000A8B1FFF713FE06460DE0286840F4803028
:100BC000F4E740F480202860F7E700BFFFF706FE57
:100BD000801B642873D828688003F7D50CE0FFF7E2
:100BE000FDFD064605E000BFFFF7F8FD801B642809
:100BF000F0D828688003F7D42078DFF8AC8280072B
:100C00004FF0000A3ED5A748001D016811F00C0FF7
:100C100008D00068C0F3810002280BD1D9F8000089
:100C2000400207D42868800716D5E068012800D163
:100C300012E033E1E068B8B10120C8F80000FFF726
:100C4000CDFD064605E000BFFFF7C8FD801B02286A
:100C5000C0D828688007F7D52868216920F0F800F7
:100C600040EAC10028600DE0C8F800A0FFF7B6FD1B
:100C7000064604E0FFF7B2FD801B02281FD8286853
:100C80008007F7D42078000722D5864F874861690E
:100C9000703771B101210160FFF7A0FD064604E045
:100CA000FFF79CFD801B022809D838688007F7D51C
:100CB0000EE0C0F800A0FFF791FD064605E082E0D7
:100CC000FFF78CFD801B02287DD838688007F7D499
:100CD0002078400768D5DFF8CCB100270BF13C0B3A
:100CE000DBF80000C0000BD4DBF8001041F08051AD
:100CF000CBF80010DBF80000012700F080500090D6
:100D00006B4E3068C00510D4306840F4807030609D
:100D1000FFF764FD009005E0FFF760FD0099401AC1
:100D2000022850D83068C005F6D55E4EA0686C36F3
:100D300001280FD00528306810D020F00100306065
:100D4000306820F004003060A068B8B1FFF746FDBD
:100D500000900FE0306840F00100F4E740F004003C
:100D60003060F7E7FFF73AFD0099411A41F2883009
:100D7000814266D830688007F4D50EE0FFF72EFD7B
:100D8000009007E0FFF72AFD0099411A41F28830F0
:100D9000814256D830688007F4D42FB1DBF80010B8
:100DA00021F08051CBF80010A069C8B33D49091D5E
:100DB0000968C1F3810102294AD00228504607D0B0
:100DC000C8F8600000E03CE0FFF708FD04463BE0A7
:100DD0004746C8F86000FFF701FD064605E000BF82
:100DE000FFF7FCFC801B02282BD828688001F7D471
:100DF000D4E907010843A16A2E4A490802EB0141E0
:100E0000626A41EA8211084394F82C1040EA0161B9
:100E1000C9F8001001203866FFF7E0FC044606E040
:100E20003EE000BFFFF7DAFC001B022809D8286863
:100E30008001F7D534E000BFFFF7D0FC001B02288B
:100E400002D90320BDE8F88F28688001F4D427E098
:100E50000128F7D0D9F80000E26900F4800191423E
:100E60001CD1226A00F03F01914217D147F6C071B0
:100E7000626A0140B1EB821F10D1A26A4FF0FF33CA
:100E800000F4403103EB5202B1EB024F06D194F86B
:100E90002C1000F07060B0EB016F01D00120D1E7A1
:100EA0000020CFE70438024000004742800E47424E
:100EB000007000400000FFFF7047704710B504004D
:100EC00003D094F83D0010B107E0012010BD0020D0
:100ED00084F83C00204600F01EF8022084F83D0013
:100EE000211D206800F02AFA012084F8460084F8C9
:100EF0003E0084F83F0084F8400084F8410084F804
:100F0000420084F8430084F8440084F8450084F8E3
:100F10003D00002010BD704790F83D10012901D020
:100F200001207047022180F83D100168CA6842F034
:100F30000102CA6000681149884214D0B0F1804FA4
:100F400011D00F4988420ED00E4988420BD00E496D
:100F5000884208D00D49884205D00D49884202D008
:100F60000C49884204D1816801F00701062903D0A9
:100F7000016841F00101016000207047000001405C
:100F80000004004000080040000C00400004014044
:100F90000040014000180040704770B504460068EA
:100FA00001694FF00005C943890715D4C168C943D9
:100FB000890711D4E91E016101202077206880692A
:100FC0008007204602D0FFF7E7FF04E000F098F822
:100FD000204600F096F8257720680169C943490743
:100FE00017D4C168C943490713D46FF004010161E4
:100FF000022020772068806910F4407F204602D0CC
:10100000FFF7CAFF04E000F07BF8204600F079F813
:10101000257720680169C943090716D4C168C94307
:10102000090712D46FF008010161042020772068BD
:10103000C0698007204602D0FFF7AEFF04E000F051
:101040005FF8204600F05DF8257720680169C94304
:10105000C90617D4C168C943C90613D46FF010017B
:101060000161082020772068C06910F4407F204685
:1010700002D0FFF791FF04E000F042F8204600F0B4
:1010800040F8257720680169C943C90708D1C168BC
:10109000C943C90704D1891E0161204600F032F816
:1010A00020680169C943090609D4C168C943090612
:1010B00005D46FF0800101612046FFF7FDFE206836
:1010C0000169C943490609D4C168C943490605D421
:1010D0006FF040010161204600F01EF820680169B0
:1010E000C94389060BD4C168C943890607D46FF088
:1010F000200101612046BDE87040FFF7DEBE70BDF3
:101100007047704700680349884201D1FFF76CBB04
:1011100070470000001000407047FEE730B59BB0FC
:1011200000251595012115A8169500F09FF91D4C75
:1011300001212061179517A8189500F097F91A4911
:1011400060610022D1E90001CDE91901012119A84E
:1011500000F0D6F90121E06000F0F2F912491C22FA
:1011600008316846FFF79CF90021684600F09DF9B8
:101170000D4920601C22243107A8FFF791F90021B6
:1011800007A800F092F9084960601C2240310EA8BF
:10119000FFF786F900210EA800F087F9A0601BB0C8
:1011A00030BD000000000020282D000830B587B0B9
:1011B00014216846FFF7A6F915480024016841F09C
:1011C00004010160016801F004010591016841F02A
:1011D00080010160016801F080010591016841F022
:1011E0000101016000680B4D00F001000590002234
:1011F000C0212846FFF7ECFAC02000900120CDE97D
:101200000104694628460394FFF7E2F907B030BDB0
:101210003038024000000240FEE7FEE7054C4FF484
:101220007A7540212046FFF7CBFA284600F012F9E4
:10123000F7E7000000000240054C4FF4FA658021FA
:101240002046FFF7BDFA284600F004F9F7E7000052
:1012500000000240012000F0FDF8FBE710B550202F
:1012600080F31188BFF34F8FBFF36F8F01F076FBD0
:1012700018B104494FF080500860002080F31188B5
:1012800010BD000004ED00E030B593B03021684699
:10129000FFF738F914210CA8FFF734F91E48002590
:1012A000016841F080510160006800F080501190A9
:1012B0001A48016841F4804101600068022400F48A
:1012C0008040119001200090000401908001CDE940
:1012D0000640082008904FF4A870CDE909040420C6
:1012E0000B906846FFF732FC08B172B6FEE70CA916
:1012F0000F2081E831004FF4A0500F904FF4805040
:10130000109005210CA8FFF727FB002801D072B62A
:10131000FEE713B030BD00004038024000700040CE
:101320000248016841F470010160704788ED00E0F7
:101330000148FFF732BE00004C070020F0B50268FC
:10134000254C264D264E274F274B4FF0804CA04270
:1013500009D0604507D0A84205D0B04203D0B842BA
:1013600001D0984204D122F0700E4A6842EA0E027F
:10137000A0421BD0604519D0A84217D0B04215D06A
:10138000B84213D0984211D0184DA8420ED0184D33
:10139000A8420BD0174DA84208D0174DA84205D03F
:1013A000164DA84202D0164DA84203D122F4407532
:1013B000CA682A434D6922F080022A4302608A6883
:1013C000C2620A688262A04201D0984201D10969D2
:1013D000016301214161F0BD0000014000040040B3
:1013E00000080040000C00400004014000400140A3
:1013F000004401400048014000180040001C00402B
:1014000000200040FEE70907090E002804DB00F178
:10141000E02080F80014704700F00F0000F1E02099
:1014200080F8141D7047EFF30580002800D00120DC
:101430007047FFF7E1F9FFF727FFFFF7B7FEFFF768
:101440006DFE00F00EF8FEE701460020842900D072
:10145000C81C704710B500B9012000F039FE00200B
:1014600010BD10B500F09CFE002010BD38B54368DB
:101470004BB1012909D1032000220090114601201F
:1014800000F0A3FF38BD012901D0002038BD0322A0
:101490000021012000F078FF040004D000231A4648
:1014A000194601F009F8204638BD7FB50D460446BF
:1014B0004169B0F9080081B1A16971B1FFF7C4FFBA
:1014C000D4E905128DE80700D4E900102B46226903
:1014D00001F005FA039004B070BDFFF7B5FF03A952
:1014E000CDE90001208A2B4682B2D4E9001001F038
:1014F000C9F9012801D00020EDE70398EBE70000CF
:101500001CB511C86CB1CDE90004012907D0002039
:1015100013460246012109A001F088FB1CBD0120F1
:10152000F6E70090012907D000201346024601216A
:1015300002A001F061FB1CBD0120F6E700000000E5
:101540002DE9FC41002507462E4601950C0000D1EF
:101550000124FFF768FF009690B101AB22460921F4
:10156000384601F0ABFB012812D1019888B10A4935
:101570004FF080500860BFF34F8FBFF36F8F08E0CC
:10158000002322460421384601F098FB012800D0B0
:10159000FF252846BDE8FC8104ED00E02DE9F0417F
:1015A000184C0F460546E6682068001D00F05CFCFC
:1015B00038B9206890F82C100120884021698143B7
:1015C0002161681C07D137B12168BDE8F0410E48A0
:1015D000091D00F099BC20683544B542456021687A
:1015E00005D2A06BBDE8F041091D00F075BC606B31
:1015F000091D00F071FCA06A854200D2A562BDE819
:10160000F081000028000020B00800202DE9F04102
:10161000054600F085FC2E4CA068401CA0602068A8
:101620002C4F10B1606940B32DE02560A0680128FF
:1016300029D1002606EB860007EB800000F03EFC77
:10164000761C072EF6D323488C3000F037FC214857
:10165000A03000F033FC1F48B43000F02FFC1D48D0
:10166000C83000F02BFC1B48DC3000F027FC194888
:101670008C3060631430A06305E02068E96AC06ABA
:10168000884200D82560606A401C6062E96A0120D7
:10169000226988401043206101EB810007EB800044
:1016A000291D00F031FC00F05BFC606900280CD0C3
:1016B0002068E96AC06A884207D207494FF0805023
:1016C0000860BFF34F8FBFF36F8FBDE8F08100005C
:1016D00028000020D407002004ED00E038B500F019
:1016E0001FFC104C2068C8B90F4800F0E7FB0E48FB
:1016F000143000F0E3FB0C48E060143020610A4B2A
:101700000020C03B009003F148020C210A2000F0A9
:101710005CFE206010B105A100F0A4FCBDE83840DB
:1017200000F01EBC6400002084090020546D72513A
:101730000000000030B4026C0B46002A0BD0C168D8
:101740001144C1608468A14201D30168C16030BC0A
:101750001846FEF760BE30BC70472DE9F041856B3E
:10176000174604460026026C82B1C7B1E068FEF756
:1017700052FEE168206C091AE1602268914202D2AF
:10178000A168081AE060022F16D017E02068A8B9F7
:10179000A06801F049F906460020A0600EE06068EC
:1017A000FEF739FE216C606808446060A1688842D9
:1017B00004D32068606001E005B16D1E6D1CA56357
:1017C0003046BDE8F08110B5044690F8510058B19C
:1017D00001280CD002280FD0502080F31188BFF3CD
:1017E0004F8FBFF36F8FFEE7206B00F0CDFB2046DD
:1017F000BDE8104000F0C8BB10BD000010484FF419
:101800007051420706D0C01D0D4920F00700411A53
:10181000C1F570510B4A00230144C2E900030839A5
:10182000183A21F0070111604B600B600B1AC0E9F8
:10183000001393604FF00040536050617047000008
:10184000AC09002090000020144E154CA6F1C807EA
:101850004FF08058DFF84C9012E000BF00F060FBC2
:10186000F068C568281D00F0FFFAA068401EA0605F
:101870006068401E606000F073FB2846FFF7A3FF1E
:1018800060680028EAD138680128F9D9C9F80080D1
:10189000BFF34F8FBFF36F8FF2E700009C0800206B
:1018A0002800002004ED00E00346009829B1026002
:1018B000C0E90F31012100F0BBBD0060F8E72DE960
:1018C000F0479A46DDE9098481466FF00303206BF7
:1018D00003EB82021044089E20F00707780707D028
:1018E000502080F31188BFF34F8FBFF36F8FFEE757
:1018F000002561B1002023180A5C83F834200A5CBB
:1019000012B1401C1028F6D384F8435001E084F84B
:101910003450072E00D30626E662C4E91165201D67
:1019200000F0D7FA04F1180000F0D3FA2461C6F1F0
:1019300007006462A061E56484F85050524649464D
:10194000384600F07BFA2060B8F1000F01D0C8F8EB
:101950000040BDE8F0872DE9F0471E46DDE9089418
:1019600017460D00804615D0002C11D0FFF7B6FEAB
:1019700004F11801C4F8008081E86002201D00F025
:10198000A8FA002F04D014F8240F40F004002070AF
:10199000BDE8F087502080F31188BFF34F8FBFF36D
:1019A0006F8FFEE730B5114900E011460A688242A8
:1019B000FBD34B685C18844203D1406818444860EC
:1019C000084643681C18944209D1084C183C246806
:1019D000A24209D052681A4442600A681268026042
:1019E000814200D0086030BD0460F9E7900000201B
:1019F00070B5002441600B4D0061914206D8D11AA8
:101A00008269914206D2011D286907E09A4203D2F9
:101A1000994201D3012403E0011DE86800F05CFA5B
:101A2000204670BD6400002010B5044600F078FA2E
:101A3000A06B28B15FF0000400F092FA204610BDC0
:101A40000124F9E730B587B0394D67E004980028E4
:101A500064DB069C606910B1201D00F005FA03A844
:101A600000F0D8F8024604980A2857D2DFE800F0C0
:101A70000505052D334A05052D3394F8240040F063
:101A8000010084F824000599A069059B01442046C3
:101A9000FFF7AEFF68B3216A2046884794F8240018
:101AA00040073BD5002000900598A169002342180B
:101AB0001946204601F002F9D8B9502080F3118868
:101AC000BFF34F8FBFF36F8FFEE714F8240F20F0A2
:101AD0000100207022E094F8240040F0010084F816
:101AE00024000598A06128B1811813462046FFF70D
:101AF0007FFF13E0502080F31188BFF34F8FBFF3B7
:101B00006F8FFEE794F82400810703D4204600F08D
:101B10003BFA03E020F0010084F82400002204A92D
:101B2000286800F0D9FD002890D107B030BD000032
:101B3000640000202DE9FC410F46054600F074FBCF
:101B400001A800F067F80446019818B100F0F2FF10
:101B5000BDE8FC81254EAFB130690068D0B30027E5
:101B6000291B3A46306800F091FA00F0E3FF0028A4
:101B7000EED11F494FF080500860BFF34F8FBFF385
:101B80006F8FE5E7A542EBD800F0D4FFF068274659
:101B9000C068C468201D00F067F994F8240041076C
:101BA00019D5A0692B4641193A462046FFF720FF78
:101BB000A8B100200346014600902A46204601F0C5
:101BC0007DF860B9502080F31188BFF34F8FBFF3C9
:101BD0006F8FFEE707E020F0010084F82400216AFF
:101BE00020468847B4E70127BAE7000064000020D8
:101BF00004ED00E00648416B096829B1416BC968F2
:101C0000C9684968816270474FF0FF31FAE7000008
:101C10002800002070B5054600F09AFE064E0446E6
:101C2000B068844203D200F009F8012000E00020EF
:101C300028602046B46070BD64000020F8B5194DDE
:101C400020E0C068C4680668201D00F00DF9216A14
:101C50002046884794F82400400713D5A0693044F3
:101C6000B04206D924616060211DE86800F034F9B3
:101C700008E000200346014600903246204601F06D
:101C80001DF838B1E86801680029DAD12969C5E989
:101C90000310F8BD502080F31188BFF34F8FBFF3BE
:101CA0006F8FFEE76400002008484068401C4FF03A
:101CB000500080F3118804D0BFF34F8FBFF36F8FB4
:101CC000FEE7BFF34F8FBFF36F8FFEE79800002052
:101CD000074CE068016841B1C0680021D0F80000FD
:101CE000FFF728FFFFF7AEFEF3E701210020F7E73B
:101CF000640000202DE9F041044600F011F994F948
:101D0000455004F1240609E0606A48B1304600F00D
:101D1000D7FE08B100F00AFA6D1E6DB2002DF3DC9B
:101D20004FF0FF3684F8456000F01AF900F0F8F83B
:101D300094F9445004F1100709E0206948B138468D
:101D400000F0BEFE08B100F0F1F96D1E6DB2002D7D
:101D5000F3DC84F84460BDE8F04100F001B9000014
:101D60002DE9F0410546002700F05EFA324E30685A
:101D700008B9FFF743FD706905424ED1C5B3083578
:101D800068070ED005F00700C0F108000544680799
:101D900007D0502080F31188BFF34F8FBFF36F8FB0
:101DA000FEE72DB37068854237D8234818300146C6
:101DB0000C6801E020460C466168A94202D2216805
:101DC0000029F7D131688C4227D00768216801606B
:101DD00060680837411B10290FD96019420708D0E5
:101DE000502080F31188BFF34F8FBFF36F8FFEE752
:101DF00013E041606560FFF7D5FD61687068401AC7
:101E00007060B268904200D2B060706901430020F7
:101E1000C4E90001F068401CF06000F08BFE780718
:101E200007D0502080F31188BFF34F8FBFF36F8F1F
:101E3000FEE73846BDE8F0817800002010B5031FAA
:101E40004FF080741C601B1F21F001011960191FE5
:101E5000044B0B6014390A60091F6FF0020244380A
:101E60000A6010BDA91C0008D0E9013201699A601E
:101E7000D0E901235A604A68824201D182684A60EF
:101E8000002202610868401E086008687047000070
:101E9000034B036003F1540008608020106070471A
:101EA000A4000020044B036003F1540008604FF4C9
:101EB0008070106070470000F802002000F10801F7
:101EC0004FF0FF32C0E90112C160016100210160E1
:101ED000704700210161704730B50B685A1C02D071
:101EE00000F1080202E0026904E022465468256815
:101EF0009D42FAD953684B6099608A6051600861CD
:101F00000168491C016030BD42684A6093688B607B
:101F100093685960916008610168491C01607047CD
:101F2000502080F31188BFF34F8FBFF36F8F0A49A2
:101F30004868401C486001280CD10848006810F02F
:101F4000FF0F07D0502080F31188BFF34F8FBFF3EE
:101F50006F8FFEE7704700009800002004ED00E05E
:101F60000849486828B1401E486001D180F31188B3
:101F70007047502080F31188BFF34F8FBFF36F8FEE
:101F8000FEE700009800002070B500282AD0164D0A
:101F9000A0F1080460686969084207D1502080F305
:101FA0001188BFF34F8FBFF36F8FFEE722683AB1FE
:101FB000502080F31188BFF34F8FBFF36F8FFEE780
:101FC0008843606000F030F96068696808446860C0
:101FD0002046FFF7E7FC2869401C2861BDE87040F7
:101FE00000F0A8BD70BD0000780000204FF0E02098
:101FF00000210161816105494FF47A720968B1FBE2
:10200000F2F1491E4161072101617047240000205F
:1020100010B5FEF765F9114910280ED300F1E02044
:1020200090F8F0030A78904207D2502080F311888C
:10203000BFF34F8FBFF36F8FFEE7094800688968D1
:1020400000F4E060884207D9502080F31188BFF384
:102050004F8FBFF36F8FFEE710BD00009800002088
:102060000CED00E010B5084B002200BF53F83240E1
:102070001CB1521C082AF9D310BD43F8321003EBEF
:10208000C201486010BD00009407002070B51546DD
:102090000E460446FFF744FF94F944100020491C03
:1020A00001D184F8440094F94510491C01D184F809
:1020B0004500FFF755FFA06B28B92A46314604F1C9
:1020C000240000F051F82046BDE87040FFF712BE32
:1020D00010B5020014D00F48006B38B1502080F3C7
:1020E0001188BFF34F8FBFF36F8FFEE700F09CF8AE
:1020F00000211046FFF752FA00F01CFD002807D11E
:1021000005494FF080500860BFF34F8FBFF36F8FCA
:1021100010BD00002800002004ED00E002490A6A1A
:102120000260C96841607047280000200149012011
:10213000C86170472800002010B50C4650B109490D
:1021400009681831FFF7C8FE2046BDE8104001219C
:10215000FFF724BA502080F31188BFF34F8FBFF3ED
:102160006F8FFEE72800002070B514460D4668B159
:102170000A4909681831FFF7C7FE0CB14FF0FF3567
:1021800021462846BDE87040FFF708BA502080F38A
:102190001188BFF34F8FBFF36F8FFEE72800002039
:1021A00030B587B00024039405AA04A903A80494B9
:1021B000FFF76EFEDDE903010094CDE90110002375
:1021C00015A11748059A00F08AFB164D0028E86211
:1021D0001FD000F043FD012809D0401C19D1502028
:1021E00080F31188BFF34F8FBFF36F8FFEE750204E
:1021F00080F31188BFF34F8FBFF36F8F4FF0FF3025
:10220000A86201206861EC6007B0BDE8304000F0D2
:1022100041B807B030BD000049444C450000000003
:1022200049180008280000200248016B491C01637E
:1022300070470000280000201448016B11B10121F3
:10224000C16170470021C1610169B1FA81F1C1F139
:102250001F0101EB81020E4951F822306BB101EBF5
:10226000820101F108034A6852684A609A4201D12A
:1022700052684A60D16801607047502080F311882D
:10228000BFF34F8FBFF36F8FFEE7000028000020E1
:10229000D40700201CB537480168374A914207D15E
:1022A000502080F31188BFF34F8FBFF36F8FFEE78D
:1022B00000683149491E884207D1502080F31188B7
:1022C000BFF34F8FBFF36F8FFEE72C490878019063
:1022D000FF20087008788DF800009DF800009DF838
:1022E000002000F0F000904207D0502080F31188C9
:1022F000BFF34F8FBFF36F8FFEE79DF80000204CB8
:1023000000F0500020700720A06005E09DF800203C
:1023100052008DF80020401E9DF800201206F5D4D2
:10232000A060032807D0502080F31188BFF34F8F9F
:10233000BFF36F8FFEE74FF44070A0600198087004
:102340000C482030016841F470010160016841F0DF
:1023500070410160FFF74AFE00206060FDF788FFD2
:102360000848016841F040410160FDF76DFF002021
:102370001CBD000000ED00E071C20F4100E400E070
:102380009800002034EF00E0F8B517460E4605002F
:1023900013D005FB06F04830FFF7E2FC04000AD03A
:1023A000002084F8460004F148023B4631462846A6
:1023B0000094FFF779FA2046F8BD502080F3118889
:1023C000BFF34F8FBFF36F8FFEE738B5049D18B191
:1023D00053B1CAB181B120E0502080F31188BFF31E
:1023E0004F8FBFF36F8FFEE7502080F31188BFF34C
:1023F0004F8FBFF36F8FFEE7502080F31188BFF33C
:102400004F8FBFF36F8FFEE739B1502080F31188F3
:10241000BFF34F8FBFF36F8FFEE748241C460123A5
:1024200084F846302B460094FFF73EFA204638BD2C
:1024300070B50D46040025D0FFF772FDD4E90F20DA
:10244000216802FB0011A1600021A1632168616085
:102450000A46D4E90F01401E00FB0121E16021463C
:102460004FF0FF3001F8440F487004F110008DB1B7
:10247000FFF724FD04F12400FFF720FDFFF770FDB6
:10248000012070BD502080F31188BFF34F8FBFF340
:102490006F8FFEE721690029F0D000F011FB0028C2
:1024A000ECD004494FF080500860BFF34F8FBFF36A
:1024B0006F8FE3E704ED00E02DE9FF4782B01D4692
:1024C0008A464FF00008040003D0BAF1000F08D08C
:1024D00011E0502080F31188BFF34F8FBFF36F8F4F
:1024E000FEE7206C38B1502080F31188BFF34F8F86
:1024F000BFF36F8FFEE7022D0AD1E06B012807D0F2
:10250000502080F31188BFF34F8FBFF36F8FFEE72A
:1025100000F010FA3F4F4FF000094FF0805648B9D5
:10252000049838B1502080F31188BFF34F8FBFF368
:102530006F8FFEE7FFF7F4FCA06BE16B884207D3D7
:10254000022D05D00498D0B1B8F1000F1AD01EE0CA
:102550002A4651462046FFF700F9616A19B104F195
:10256000240000F0ADFA20B13E60BFF34F8FBFF3FF
:102570006F8FFFF7F5FC012006B0BDE8F087FFF78D
:10258000EFFC22E06846FFF7C9FD4FF00108FFF7B6
:10259000E7FCFFF749FEFFF7C3FC94F94400401C39
:1025A00001D184F8449094F94500401C01D184F88D
:1025B0004590FFF7D5FC04A9684600F029F930B131
:1025C0002046FFF797FB00F0B5FA0020D4E7FFF7AD
:1025D000A7FCA06BE16B884213D1FFF7C1FC04F1AB
:1025E00010000499FFF7A8FD2046FFF783FB00F0D9
:1025F000A1FA00289ED13E60BFF34F8FBFF36F8FCB
:1026000098E7FFF7ADFC2046FFF774FB00F092FA65
:1026100090E7000004ED00E02DE9F0471F469046EA
:102620008946040003D0B9F1000F08D011E0502012
:1026300080F31188BFF34F8FBFF36F8FFEE7206CDD
:1026400038B1502080F31188BFF34F8FBFF36F8FE5
:10265000FEE7022F0AD1E06B012807D0502080F35B
:102660001188BFF34F8FBFF36F8FFEE7FFF7D0FCEA
:102670005020EFF3118680F31188BFF34F8FBFF323
:102680006F8FA06BE16B884206D3022F04D000202D
:1026900086F31188BDE8F08794F94550A06B3A465F
:1026A00049462046FFF759F8681C04D06D1C84F891
:1026B00045500120ECE7606A0028FAD004F12400BC
:1026C00000F0FEF90028F4D0B8F1000FF1D001219C
:1026D000C8F80010EDE700002DE9F747002683B0A9
:1026E0008A46040003D0BAF1000F08D011E0502050
:1026F00080F31188BFF34F8FBFF36F8FFEE7206C1D
:1027000038B1502080F31188BFF34F8FBFF36F8F24
:10271000FEE700F00FF9DFF8F4804FF000094FF00A
:10272000805748B9059838B1502080F31188BFF31D
:102730004F8FBFF36F8FFEE7FFF7F2FBA56BC5B1BD
:1027400051462046FEF7F6FF6D1EA563206950B185
:1027500004F1100000F0B4F928B1C8F80070BFF31C
:102760004F8FBFF36F8FFFF7FBFB012006B0BDE873
:10277000F087059808B11EB106E0FFF7F1FB27E0EE
:102780006846FFF7CBFC0126FFF7EAFBFFF74CFD9D
:10279000FFF7C6FB94F94400401C01D184F8449033
:1027A00094F94500401C01D184F84590FFF7D8FB0F
:1027B00005A9684600F02CF8002820460AD0FFF74B
:1027C00099FA00F0B7F92046FFF72EF90028B3D0A8
:1027D0000020CBE7FFF728F990B104F12400059918
:1027E000FFF7AAFC2046FFF785FA00F0A3F90028BE
:1027F000A2D1C8F80070BFF34F8FBFF36F8F9BE774
:102800002046FFF777FA00F095F995E704ED00E030
:102810002DE9F0410C46050011D0C4B1FFF780FB53
:10282000174BDA686E682068911B471C17D02F6819
:102830001B6A9F4219D0964217D8012410E05020FD
:1028400080F31188BFF34F8FBFF36F8FFEE75020E7
:1028500080F31188BFF34F8FBFF36F8FFEE7002423
:10286000FFF77EFB2046BDE8F081884205D9401A7B
:1028700020602846FFF752FCF1E700202060DCE7EB
:10288000280000202DE9FF5F8346DDE90E87994689
:1028900016468A469000FFF763FA05001CD05420C4
:1028A000FFF75EFA040014D00020256384F851007D
:1028B000CDE90240CDE900874B46324651465846A5
:1028C000FEF7FDFF2046FEF7A1FE012004B0BDE8A3
:1028D000F09F2846FFF758FB4FF0FF30F6E7F0B5C2
:1028E00085B0DDE90B640A9DA6B1DCB154270097E1
:1028F0002663022684F85160002604AFCDE9024623
:10290000CDE90057FEF7DBFF2046FEF77FFE049877
:1029100005B0F0BD502080F31188BFF34F8FBFF397
:102920006F8FFEE7502080F31188BFF34F8FBFF306
:102930006F8FFEE70548416919B1006B18B100209F
:1029400070470120704702207047000028000020D7
:102950000148C06870470000280000202DE9F041C0
:102960002F4C0026206B28B1A069401CA061304686
:10297000BDE8F081E5686D1CE56013D1606B00680F
:1029800038B1502080F31188BFF34F8FBFF36F8FA2
:10299000FEE7606BA16B6163A063206A401C20624C
:1029A000FFF728F9A06ADFF87C80854209D3606BC5
:1029B0000068A0B1606BC068C7687868854211D2B2
:1029C000A0622068C06A00EB800158F8210001284D
:1029D00000D90126E0690028C9D00126C7E74FF0D9
:1029E000FF30EDE7381DFFF73FFAB86A18B107F17D
:1029F0001800FFF739FAF96A01202269884010436C
:102A0000206101EB810108EB8100391DFFF77CFAA1
:102A1000F86A2168C96A8842C9D30126C7E700005D
:102A200028000020D407002070B504004FF00001FA
:102A300040D0214D2868844207D0502080F311886F
:102A4000BFF34F8FBFF36F8FFEE7A06C38B1401E0E
:102A5000A064636CE26A9A422CD040B12AE0502014
:102A600080F31188BFF34F8FBFF36F8FFEE7201DF8
:102A7000FFF7FAF9114A012150B9E06A00EB80032F
:102A800052F8233023B92B6901FA00F083432B61FC
:102A9000606CE062C0F10700A061E06A2B698140D0
:102AA0001943296100EB800002EB8000211DFFF734
:102AB0002BFA0121084670BD28000020D407002011
:102AC0002DE9F041C068C468ACB104F118000746B4
:102AD000FFF7CAF9154D286B0126A0B139461448F5
:102AE000FFF712FAE06A2968C96A88421CD90120F6
:102AF000EE61BDE8F081502080F31188BFF34F8F65
:102B0000BFF36F8FFEE7201DFFF7AEF9E16A2A6978
:102B100006FA01F01043286101EB81000449B43941
:102B200001EB8000211DDBE70020E2E72800002008
:102B3000880800202DE9F0472C4D00242746286BFB
:102B400038B1FFF7EDF9286B401E2863286B40B1C0
:102B500046E0502080F31188BFF34F8FBFF36F8F93
:102B6000FEE7A968224E0120D1B3A6F1B409804640
:102B70003068E8B1F068C46804F11800FFF774F930
:102B8000201DFFF771F9E06A2A6908FA00F1114384
:102B9000296100EB800109EB8100211DFFF7B4F9E9
:102BA000E06A2968C96A8842E2D3C5F81C80DFE779
:102BB0000CB1FFF71FF8AC6944B14646FFF7CEFEF3
:102BC00000B1EE61641EF9D10020A861E86938B156
:102BD0000849012738070860BFF34F8FBFF36F8F95
:102BE000FFF7BEF93846BDE8F08700002800002056
:102BF0008808002004ED00E02DE9FC4781461E46D0
:102C00001746884628200A9DFFF7AAF804000AD034
:102C1000002084F82400CDE9005433463A4641466A
:102C20004846FEF798FE2046BDE8FC877CB528267E
:102C3000DDE90654009644B1022684F82460CDE90B
:102C40000054FEF788FE20467CBD502080F311889A
:102C5000BFF34F8FBFF36F8FFEE7000010B586B054
:102C6000FEF73CFD114C2068B8B1002003900490A1
:102C700005AA04A903A8FFF715F9DDE9032103203C
:102C80008DE8070000230AA10B48059AFFF727FEED
:102C9000606010B106B0012010BD502080F3118893
:102CA000BFF34F8FBFF36F8FFEE70000640000207B
:102CB000546D722053766300D11C0008FEB51E4689
:102CC00013460200089D4FF0000014D0124C2768F4
:102CD000002F0FD0CDE900130292062915DAFFF775
:102CE00029FE02284FF000030DD00022694620681B
:102CF000FFF7E2FBFEBD502080F31188BFF34F8F3A
:102D0000BFF36F8FFEE72A46F0E70023324669469D
:102D10003846FFF781FCFEBD640000204FF0407094
:102D2000E1EE100A70470000CD0500080000000029
:102D3000B42D00081D120008000000000000000073
:102D40008000000000000000000000009C2D000832
:102D500039120008000000000000000080000000A0
:102D60000000000000000000A82D00085512000817
:102D700000000000000000008000000000000000D3
:102D80000000000000000000000000000102030439
:102D90000607080900000000010203046D79546170
:102DA000736B3032000000006D795461736B303307
:102DB0000000000064656661756C745461736B009B
:102DC000E02D000800000020A4000000C40100085D
:102DD000842E0008A40000206C4B0000E0010008D5
:102DE00000000000000000000000000000000000E3
:102DF00000000000000000000100000010000000C2
:102E0000000000000024F4000000000000000000AA
:102E100000000000000000000000000000000000B2
:102E200000000000000000000000000000000000A2
:102E30000000000000000000000000000000000092
:102E40000000000000000000000000000000000082
:102E50000000000000000000000000000000000072
:102E60000000000000000000000000000000000062
:102E7000000000000000000000000000AAAAAAAAAA
:042E8000000000004E
:040000050800018965
:00000001FF
