:020000040800F2
:1000000000070020290200085B11000829100008E1
:10001000591100081F0400086313000800000000C5
:100020000000000000000000000000005F11000858
:1000300021040008000000005D11000861110008A3
:10004000430200084302000843020008430200087C
:10005000430200084302000843020008430200086C
:10006000430200084302000843020008430200085C
:10007000430200084302000843020008430200084C
:10008000430200084302000843020008430200083C
:10009000430200084302000843020008430200082C
:1000A000430200084302000843020008430200081C
:1000B0001912000825120008430200084302000834
:1000C00043020008430200084302000843020008FC
:1000D00043020008430200084302000843020008EC
:1000E00043020008430200084302000843020008DC
:1000F00043020008430200084302000843020008CC
:1001000043020008430200084302000843020008BB
:1001100043020008430200084302000843020008AB
:10012000430200084302000843020008430200089B
:10013000430200084302000843020008430200088B
:10014000430200084302000843020008430200087B
:10015000430200084302000843020008430200086B
:10016000430200084302000843020008430200085B
:100170004302000843020008430200080000000098
:10018000430200084302000800F002F800F03CF8C7
:100190000AA090E8000C82448344AAF10107DA45E2
:1001A00001D100F031F8AFF2090EBAE80F0013F0F8
:1001B000010F18BFFB1A43F001031847F8110000A4
:1001C00018120000103A24BF78C878C1FAD8520734
:1001D00024BF30C830C144BF04680C6070470000C1
:1001E0000023002400250026103A28BF78C1FBD840
:1001F000520728BF30C148BF0B6070471FB501F0E0
:10020000CCF81FBD10B510BD00F0CFF81146FFF7B8
:10021000F5FF01F0B7F800F0EDF803B4FFF7F2FFD7
:1002200003BC00F0F5F80000094880470948004782
:10023000FEE7FEE7FEE7FEE7FEE7FEE7FEE7FEE796
:10024000FEE7FEE704480549054A064B70470000F3
:10025000FD110008890100080001002000070020AE
:10026000000300200003002053EA020C00F0698024
:100270002DE9F04B4FF00006002B1FBFB3FA83F5BA
:1002800003FA05F424FA05F65E4012BF1643B2FAEB
:1002900082F502FA05F4C5F120051EBF22FA05FC1D
:1002A00044EA0C04203556EA044C4FEA144418BFC3
:1002B000641C4FF000084FF00009904271EB030CF2
:1002C00039D3002919BFB1FA81F701FA07F6B0FA5C
:1002D00080F700FA07F6C7F120071EBF20FA07FCD7
:1002E00046EA0C062037B6FBF4FCA7EB0507103FE7
:1002F00007F01F0BCBF120060CFA0BFB2CFA06F6CD
:1003000044BFB3460026202FA4BF5E464FF0000B2B
:100310005BEA060C08BF4FF0010B19EB0B09ABFBB6
:10032000027C48EB0608C01B06FB02CC0BFB03CC8F
:1003300071EB0C01C1E70B46024641464846BDE859
:10034000F08B13B54FF000004FF00001AFF30080C9
:10035000BDE81C4070474FF0000200B513469446BC
:100360009646203922BFA0E80C50A0E80C50B1F10D
:100370002001BFF4F7AF090728BFA0E80C5048BF21
:100380000CC05DF804EB890028BF40F8042B08BFBF
:10039000704748BF20F8022B11F0804F18BF00F8BB
:1003A000012B7047704770477047754600F02CF876
:1003B000AE4605006946534620F00700854618B052
:1003C00020B5FFF73FFFBDE820404FF000064FF09B
:1003D00000074FF000084FF0000B21F00701AC467A
:1003E000ACE8C009ACE8C009ACE8C009ACE8C00999
:1003F0008D46704710B50446AFF300802046BDE837
:100400001040FFF70ABF000000487047A00000201E
:1004100001491820ABBEFEE7260002007047FEE748
:10042000704772B6FEE700002DE9F84FDFF8BCA177
:10043000002201250AF1040B03264FF00F090BF1EE
:10044000040E00BF0B6805FA02F42340A34270D1EA
:100450000F7907F00307012F01D0022F16D187680B
:100460004FEA420806FA08FC27EA0C07D1F80CC04C
:100470000CFA08FC4CEA070CC0F808C04768A74310
:100480000C79C4F3001494403C4344600C79E44379
:10049000A4070AD0C4684FEA420C06FA0CF7BC4322
:1004A0008F6807FA0CF72743C7600C7904F0030440
:1004B000022C12D1D40800EB840CDCF82040570742
:1004C000FF0E09FA07F824EA0804D1F8108008FAA8
:1004D00007F848EA0408CCF8208004684FEA420C88
:1004E00006FA0CF7BC430F7907F0030707FA0CF77D
:1004F000274307604C6814F4403F70D03C4C276899
:1005000047F480472760246822F0030704F48044FE
:100510000094384C07EB040CDCF8084897074FEAC6
:10052000177809FA08F7BC43334FB84202D10027C5
:1005300024E054E0314FB84201D101271EE0304F92
:10054000B84201D1022719E02E4FB84201D103274A
:1005500014E02D4FB84201D104270FE02B4FB842D1
:1005600001D105270AE02A4FB84201D1062705E04C
:10057000284FB84201D1072700E0082707FA08F7FB
:100580002743CCF80878DAF800405746D1F804C081
:100590009C435FEACC3C00D51C433C60DBF8004048
:1005A0005F46D1F804C09C435FEA8C3C00D51C43F5
:1005B0003C60DEF800407746D1F804C09C435FEA17
:1005C000CC2C00D51C433C60084F0C373C68D1F85C
:1005D00004C09C435FEA8C2C00D51C433C60521C39
:1005E000102AFFF42FAFBDE8F88F0000003C014057
:1005F0004438024000300140000002400004024044
:1006000000080240000C02400010024000140240AA
:1006100000180240001C02400AB1816170470904C1
:10062000FBE70000014880687047000000000020E0
:100630000248816802781144816070470000002000
:100640000B4810B5016841F400710160016841F484
:1006500080610160016841F480710160032000F055
:100660006FF8002000F006F800F024F8002010BD1C
:10067000003C024070B50D4D04464FF47A71287865
:10068000B1FBF0F00A490968B1FBF0F000F0EAFABA
:1006900048B9102C07D200222146501E00F030F835
:1006A00000206C6070BD012070BD000000000020C3
:1006B0000C0000200A4808B5016841F4804101603F
:1006C000006800F4804000900548001F016841F078
:1006D00080510160006800F08050009008BD00006B
:1006E00044380240002809DB00F01F02012191403C
:1006F0004009800000F1E020C0F8001170470000C0
:10070000F0B40E4B1B680C46C3F30223C3F107057C
:10071000042D00D90425191D072901D2002300E06A
:10072000DB1E012606FA05F1491E214099409E4034
:10073000761E16403143F0BC00F014BE0CED00E014
:10074000064900F0070208684FF6FF03184040EA28
:100750000220034A10430860704700000CED00E0DF
:100760000000FA052DE9F0470E46050065D0DFF8D8
:100770001481D8F80000F7B200F00700B04207D2A9
:1007800088F80070D8F8000000F00700B04254D19B
:1007900028683D4C810712D5400703D5206840F4F6
:1007A000E05020602878000703D5206840F46040BE
:1007B00020602068A96820F0F000084320602878B5
:1007C000C0072DD0304968680839012812D00228A6
:1007D00013D0032811D00968890700292DDA216870
:1007E00021F0030101432160FFF71CFF814641F224
:1007F000883A0EE009688903EFE709688901ECE7A8
:10080000FFF710FFA0EB0901514502D90320BDE815
:10081000F0872068696800F00C00B0EB810FEFD121
:10082000D8F80010404601F00701B14207D907701F
:10083000006800F00700B04201D00120E7E7287807
:10084000400705D52068E96820F4E050084320609F
:100850002878000706D52068296920F4604040EA1E
:10086000C100206000F018F82168084AC1F30311A4
:10087000515CC8400649086006480068FFF7FAFE68
:100880000020C4E7003C024008380240A4130008DE
:100890000C00002004000020154810B5006810F07E
:1008A0000C02144813D04110042A0FD0082A0ED18C
:1008B0000F4C241F2268236802F03F025B0207D519
:1008C0002068C0F38810A0FB010106E0084610BDB7
:1008D0002168C1F38811A1FB00010023FFF7C4FCCC
:1008E0002168C1F30141491C4900B0FBF1F010BD82
:1008F000083802400024F4002DE9F84F04006ED0BF
:100900002078DFF84C93C007A9F104054AD009F11B
:1009100004000168C1F38101012908D00068C0F317
:10092000810002280AD1D9F80000400206D52868C3
:10093000800337D560680028E1D033E06068B0F507
:10094000803F10D0B0F5A02F286810D020F4803060
:100950002860286820F4802028606068A8B1FFF72C
:1009600061FE06460DE0286840F48030F4E740F46C
:1009700080202860F7E700BFFFF754FE801B642843
:1009800073D828688003F7D50CE0FFF74BFE0646C6
:1009900005E000BFFFF746FE801B6428F0D82868FA
:1009A0008003F7D42078DFF8AC8280074FF0000A8C
:1009B0003ED5A748001D016811F00C0F08D0006853
:1009C000C0F3810002280BD1D9F80000400207D4FF
:1009D0002868800716D5E068012800D112E033E1CD
:1009E000E068B8B10120C8F80000FFF71BFE06461A
:1009F00005E000BFFFF716FE801B0228C0D828685C
:100A00008007F7D52868216920F0F80040EAC10086
:100A100028600DE0C8F800A0FFF704FE064604E0D9
:100A2000FFF700FE801B02281FD828688007F7D434
:100A30002078000722D5864F87486169703771B1E9
:100A400001210160FFF7EEFD064604E0FFF7EAFD35
:100A5000801B022809D838688007F7D50EE0C0F857
:100A600000A0FFF7DFFD064605E082E0FFF7DAFDB4
:100A7000801B02287DD838688007F7D4207840078B
:100A800068D5DFF8CCB100270BF13C0BDBF8000098
:100A9000C0000BD4DBF8001041F08051CBF80010FF
:100AA000DBF80000012700F0805000906B4E3068AA
:100AB000C00510D4306840F480703060FFF7B2FD9C
:100AC000009005E0FFF7AEFD0099401A022850D8CB
:100AD0003068C005F6D55E4EA0686C3601280FD090
:100AE0000528306810D020F001003060306820F018
:100AF00004003060A068B8B1FFF794FD00900FE0EB
:100B0000306840F00100F4E740F004003060F7E79F
:100B1000FFF788FD0099411A41F28830814266D87A
:100B200030688007F4D50EE0FFF77CFD009007E009
:100B3000FFF778FD0099411A41F28830814256D87A
:100B400030688007F4D42FB1DBF8001021F0805119
:100B5000CBF80010A069C8B33D49091D0968C1F36D
:100B6000810102294AD00228504607D0C8F8600007
:100B700000E03CE0FFF756FD04463BE04746C8F87E
:100B80006000FFF74FFD064605E000BFFFF74AFD96
:100B9000801B02282BD828688001F7D4D4E90701EC
:100BA0000843A16A2E4A490802EB0141626A41EA00
:100BB0008211084394F82C1040EA0161C9F8001032
:100BC00001203866FFF72EFD044606E03EE000BF38
:100BD000FFF728FD001B022809D828688001F7D5F7
:100BE00034E000BFFFF71EFD001B022802D90320DE
:100BF000BDE8F88F28688001F4D427E00128F7D0F9
:100C0000D9F80000E26900F4800191421CD1226A07
:100C100000F03F01914217D147F6C071626A01406E
:100C2000B1EB821F10D1A26A4FF0FF3300F44031C4
:100C300003EB5202B1EB024F06D194F82C1000F0F6
:100C40007060B0EB016F01D00120D1E70020CFE749
:100C50000438024000004742800E474200700040C6
:100C60000000FFFF10B5401EB0F1807F01D30120CE
:100C700010BD4FF0E02460610F21601700F072FB9F
:100C80000020A06107202061002010BD7047704740
:100C900070B590F83C20012A32D0012480F83C4005
:100CA000022280F83D2003685A689D6822F0700691
:100CB0000A6832435A60134B02689A4214D0B2F168
:100CC000804F11D0104B9A420ED0104B9A420BD04D
:100CD0000F4B9A4208D00F4B9A4205D00E4B9A42C6
:100CE00002D00E4B9A4204D1496825F08003194383
:100CF000916080F83D40002180F83C10084670BDAE
:100D0000022070BD000001400004004000080040C7
:100D1000000C004000040140004001400018004069
:100D200010B5040003D094F83D0010B107E0012095
:100D300010BD002084F83C00204600F01FF802207F
:100D400084F83D00211D206800F072FA012084F82B
:100D5000460084F83E0084F83F0084F8400084F8A0
:100D6000410084F8420084F8430084F8440084F889
:100D7000450084F83D00002010BD000008B5016862
:100D80001448B1F1804F14D0134A914220D1016828
:100D900041F0020101600068002200F002000090B2
:100DA00011461D20FFF7ACFC1D20BDE80840FFF7F1
:100DB00099BC016841F0010101600068002200F067
:100DC0000100009011461C20FFF79AFC1C20ECE764
:100DD00008BD0000403802400004004070B50446E1
:100DE00090F83C000025012817D0012684F83C60CB
:100DF000022084F83D002068826822F0770222F405
:100E00007F4282600868502838D00DDC20284FD0FF
:100E100005DC90B3102811D14AE0022070BD3028C3
:100E200046D040280AD13BE060282FD070280DD052
:100E3000B0F5805F03D0B0F5005F12D0012584F8D3
:100E40003D60002084F83C00284670BDCB68D1E9A5
:100E50000121206800F050FA2068816841F0770194
:100E600009E0CB68D1E90121206800F045FA20684B
:100E7000816841F480418160E1E719E0CA6849680E
:100E8000206800F04BFA5021206806E0CA684968E3
:100E9000206800F054FA6021206800F037FACEE7AD
:100EA000CA684968206800F039FA40212068F4E7F0
:100EB000226801461046F0E7704770B504460068A6
:100EC00001694FF00005C943890715D4C168C943BA
:100ED000890711D4E91E016101202077206880690B
:100EE0008007204602D0FFF7E7FF04E000F098F803
:100EF000204600F096F8257720680169C943490724
:100F000017D4C168C943490713D46FF004010161C4
:100F1000022020772068806910F4407F204602D0AC
:100F2000FFF7CAFF04E000F07BF8204600F079F8F4
:100F3000257720680169C943090716D4C168C943E8
:100F4000090712D46FF0080101610420207720689E
:100F5000C0698007204602D0FFF7AEFF04E000F032
:100F60005FF8204600F05DF8257720680169C943E5
:100F7000C90617D4C168C943C90613D46FF010015C
:100F80000161082020772068C06910F4407F204666
:100F900002D0FFF791FF04E000F042F8204600F095
:100FA00040F8257720680169C943C90708D1C1689D
:100FB000C943C90704D1891E0161204600F032F8F7
:100FC00020680169C943090609D4C168C9430906F3
:100FD00005D46FF0800101612046FFF757FE2068BD
:100FE0000169C943490609D4C168C943490605D402
:100FF0006FF040010161204600F015F8206801699A
:10100000C94389060BD4C168C943890607D46FF068
:10101000200101612046BDE87040FFF738BE70BD79
:101020007047704770477047FEE7000030B587B0E3
:1010300014216846FFF78FF911480024016841F038
:1010400080010160016801F080010591016841F0B3
:101050000101016000680B4D00F00100059022467F
:1010600040212846FFF7D8FA402000900120CDE922
:101070000104694628460394FFF7D6F907B030BD4E
:10108000303802400000024010B586B000241748F6
:10109000009401940294039404944FF080410594C9
:1010A00001605321C0E9011440F2E731C0E90314A3
:1010B00080218161FFF734FE08B1FFF7B2F94FF4E8
:1010C0008050009069460948FFF788FE08B1FFF795
:1010D000A8F9049404A905480594FFF7D9FD002850
:1010E00001D0FFF79EF906B010BD000010000020EF
:1010F00010B586B00024174800940194029403941C
:1011000004941349059401605321C0E9011440F28D
:10111000E731C0E9031480218161FFF701FE08B1C6
:10112000FFF77FF94FF48050009069460948FFF7B8
:1011300055FE08B1FFF775F9049404A90548059414
:10114000FFF7A6FD002801D0FFF76BF906B010BD30
:101150000004004058000020FEE7FEE7704770479B
:10116000FFF766BA30B593B030216846FFF7F3F861
:1011700014210CA8FFF7EFF81E480025016841F084
:1011800080510160006800F0805011901A48016899
:1011900041F4804101600068022400F48040119015
:1011A00001200090000401908001CDE90640082054
:1011B00008904FF4A870CDE9090404200B9068460C
:1011C000FFF79AFB08B172B6FEE70CA90F2081E881
:1011D00031004FF4A0500F904FF480501090052133
:1011E0000CA8FFF7BFFA002801D072B6FEE713B0D3
:1011F00030BD0000403802400070004005480168E2
:1012000041F47001016003494FF0006080390860CB
:101210007047000088ED00E00148FFF74EBE000077
:10122000100000200148FFF748BE000058000020D1
:10123000F0B50268254C264D264E274F274B4FF020
:10124000804CA04209D0604507D0A84205D0B042EA
:1012500003D0B84201D0984204D122F0700E4A68FF
:1012600042EA0E02A0421BD0604519D0A84217D016
:10127000B04215D0B84213D0984211D0184DA842B0
:101280000ED0184DA8420BD0174DA84208D0174DCC
:10129000A84205D0164DA84202D0164DA84203D14F
:1012A00022F44075CA682A434D6922F080022A431D
:1012B00002608A68C2620A688262A04201D09842D3
:1012C00001D10969016301214161F0BD00000140C4
:1012D0000004004000080040000C004000040140F1
:1012E0000040014000440140004801400018004017
:1012F000001C00400020004010B5846842EA032230
:1013000024F47F440A432243826010BD826822F0A5
:1013100070020A4342F007018160704710B5036A0A
:10132000046A24F001040462846924F0F00444EAAD
:10133000021423F00A020A438461026210BD10B550
:10134000036A23F0100303628369046A23F4704381
:1013500043EA023224F0A00343EA011182610162F0
:1013600010BDFEE70907090E002804DB00F1E020AC
:1013700080F80014704700F00F0000F1E02080F8C2
:10138000141D7047FFF75CF9FFF7ECFEFFF74EFE08
:10139000FFF77AFEFFF7ACFEFEE74FF04070E1EE9C
:1013A000100A704700000000000000000102030462
:1013B00006070809D41300080000002010000000F0
:1013C000C4010008E413000810000020F00600002B
:1013D000E001000801000000100000000000000013
:0413E0000024F400F1
:040000050800018965
:00000001FF
